{
  "_format": "hh-sol-artifact-1",
  "contractName": "CarbonMarketplace",
  "sourceName": "contracts/CarbonMarketplace.sol",
  "abi": [
    {
      "inputs": [
        {
          "internalType": "address",
          "name": "_creditToken",
          "type": "address"
        },
        {
          "internalType": "address",
          "name": "_cUSD",
          "type": "address"
        },
        {
          "internalType": "address",
          "name": "_treasury",
          "type": "address"
        }
      ],
      "stateMutability": "nonpayable",
      "type": "constructor"
    },
    {
      "inputs": [],
      "name": "EnforcedPause",
      "type": "error"
    },
    {
      "inputs": [],
      "name": "ExpectedPause",
      "type": "error"
    },
    {
      "inputs": [
        {
          "internalType": "address",
          "name": "owner",
          "type": "address"
        }
      ],
      "name": "OwnableInvalidOwner",
      "type": "error"
    },
    {
      "inputs": [
        {
          "internalType": "address",
          "name": "account",
          "type": "address"
        }
      ],
      "name": "OwnableUnauthorizedAccount",
      "type": "error"
    },
    {
      "inputs": [],
      "name": "ReentrancyGuardReentrantCall",
      "type": "error"
    },
    {
      "inputs": [
        {
          "internalType": "address",
          "name": "token",
          "type": "address"
        }
      ],
      "name": "SafeERC20FailedOperation",
      "type": "error"
    },
    {
      "anonymous": false,
      "inputs": [
        {
          "indexed": true,
          "internalType": "uint256",
          "name": "orderId",
          "type": "uint256"
        },
        {
          "indexed": true,
          "internalType": "address",
          "name": "seller",
          "type": "address"
        }
      ],
      "name": "OrderCancelled",
      "type": "event"
    },
    {
      "anonymous": false,
      "inputs": [
        {
          "indexed": true,
          "internalType": "uint256",
          "name": "orderId",
          "type": "uint256"
        },
        {
          "indexed": true,
          "internalType": "address",
          "name": "seller",
          "type": "address"
        },
        {
          "indexed": true,
          "internalType": "uint256",
          "name": "tokenId",
          "type": "uint256"
        },
        {
          "indexed": false,
          "internalType": "uint256",
          "name": "amount",
          "type": "uint256"
        },
        {
          "indexed": false,
          "internalType": "uint256",
          "name": "pricePerCredit",
          "type": "uint256"
        }
      ],
      "name": "OrderCreated",
      "type": "event"
    },
    {
      "anonymous": false,
      "inputs": [
        {
          "indexed": true,
          "internalType": "uint256",
          "name": "orderId",
          "type": "uint256"
        },
        {
          "indexed": true,
          "internalType": "address",
          "name": "buyer",
          "type": "address"
        },
        {
          "indexed": true,
          "internalType": "address",
          "name": "seller",
          "type": "address"
        },
        {
          "indexed": false,
          "internalType": "uint256",
          "name": "tokenId",
          "type": "uint256"
        },
        {
          "indexed": false,
          "internalType": "uint256",
          "name": "amount",
          "type": "uint256"
        },
        {
          "indexed": false,
          "internalType": "uint256",
          "name": "totalPrice",
          "type": "uint256"
        },
        {
          "indexed": false,
          "internalType": "uint256",
          "name": "fee",
          "type": "uint256"
        }
      ],
      "name": "OrderFilled",
      "type": "event"
    },
    {
      "anonymous": false,
      "inputs": [
        {
          "indexed": true,
          "internalType": "uint256",
          "name": "orderId",
          "type": "uint256"
        },
        {
          "indexed": true,
          "internalType": "address",
          "name": "buyer",
          "type": "address"
        },
        {
          "indexed": false,
          "internalType": "uint256",
          "name": "amountFilled",
          "type": "uint256"
        },
        {
          "indexed": false,
          "internalType": "uint256",
          "name": "amountRemaining",
          "type": "uint256"
        }
      ],
      "name": "OrderPartiallyFilled",
      "type": "event"
    },
    {
      "anonymous": false,
      "inputs": [
        {
          "indexed": true,
          "internalType": "address",
          "name": "previousOwner",
          "type": "address"
        },
        {
          "indexed": true,
          "internalType": "address",
          "name": "newOwner",
          "type": "address"
        }
      ],
      "name": "OwnershipTransferred",
      "type": "event"
    },
    {
      "anonymous": false,
      "inputs": [
        {
          "indexed": false,
          "internalType": "address",
          "name": "account",
          "type": "address"
        }
      ],
      "name": "Paused",
      "type": "event"
    },
    {
      "anonymous": false,
      "inputs": [
        {
          "indexed": false,
          "internalType": "uint256",
          "name": "oldFee",
          "type": "uint256"
        },
        {
          "indexed": false,
          "internalType": "uint256",
          "name": "newFee",
          "type": "uint256"
        }
      ],
      "name": "TradingFeeUpdated",
      "type": "event"
    },
    {
      "anonymous": false,
      "inputs": [
        {
          "indexed": false,
          "internalType": "address",
          "name": "account",
          "type": "address"
        }
      ],
      "name": "Unpaused",
      "type": "event"
    },
    {
      "inputs": [],
      "name": "MAX_FEE_BPS",
      "outputs": [
        {
          "internalType": "uint256",
          "name": "",
          "type": "uint256"
        }
      ],
      "stateMutability": "view",
      "type": "function"
    },
    {
      "inputs": [
        {
          "internalType": "uint256",
          "name": "orderId",
          "type": "uint256"
        },
        {
          "internalType": "uint256",
          "name": "amount",
          "type": "uint256"
        }
      ],
      "name": "buyCredits",
      "outputs": [],
      "stateMutability": "nonpayable",
      "type": "function"
    },
    {
      "inputs": [],
      "name": "cUSD",
      "outputs": [
        {
          "internalType": "contract IERC20",
          "name": "",
          "type": "address"
        }
      ],
      "stateMutability": "view",
      "type": "function"
    },
    {
      "inputs": [
        {
          "internalType": "uint256",
          "name": "orderId",
          "type": "uint256"
        },
        {
          "internalType": "uint256",
          "name": "amount",
          "type": "uint256"
        }
      ],
      "name": "calculateBuyCost",
      "outputs": [
        {
          "internalType": "uint256",
          "name": "totalCost",
          "type": "uint256"
        },
        {
          "internalType": "uint256",
          "name": "fee",
          "type": "uint256"
        },
        {
          "internalType": "uint256",
          "name": "sellerReceives",
          "type": "uint256"
        }
      ],
      "stateMutability": "view",
      "type": "function"
    },
    {
      "inputs": [
        {
          "internalType": "uint256",
          "name": "orderId",
          "type": "uint256"
        }
      ],
      "name": "cancelOrder",
      "outputs": [],
      "stateMutability": "nonpayable",
      "type": "function"
    },
    {
      "inputs": [
        {
          "internalType": "uint256",
          "name": "tokenId",
          "type": "uint256"
        },
        {
          "internalType": "uint256",
          "name": "amount",
          "type": "uint256"
        },
        {
          "internalType": "uint256",
          "name": "pricePerCredit",
          "type": "uint256"
        }
      ],
      "name": "createSellOrder",
      "outputs": [
        {
          "internalType": "uint256",
          "name": "",
          "type": "uint256"
        }
      ],
      "stateMutability": "nonpayable",
      "type": "function"
    },
    {
      "inputs": [],
      "name": "creditToken",
      "outputs": [
        {
          "internalType": "contract IERC1155",
          "name": "",
          "type": "address"
        }
      ],
      "stateMutability": "view",
      "type": "function"
    },
    {
      "inputs": [
        {
          "internalType": "address",
          "name": "seller",
          "type": "address"
        }
      ],
      "name": "getActiveOrdersBySeller",
      "outputs": [
        {
          "internalType": "uint256[]",
          "name": "",
          "type": "uint256[]"
        }
      ],
      "stateMutability": "view",
      "type": "function"
    },
    {
      "inputs": [
        {
          "internalType": "uint256",
          "name": "tokenId",
          "type": "uint256"
        }
      ],
      "name": "getActiveOrdersByToken",
      "outputs": [
        {
          "internalType": "uint256[]",
          "name": "",
          "type": "uint256[]"
        }
      ],
      "stateMutability": "view",
      "type": "function"
    },
    {
      "inputs": [],
      "name": "getAllActiveOrders",
      "outputs": [
        {
          "internalType": "uint256[]",
          "name": "",
          "type": "uint256[]"
        }
      ],
      "stateMutability": "view",
      "type": "function"
    },
    {
      "inputs": [
        {
          "internalType": "uint256",
          "name": "tokenId",
          "type": "uint256"
        }
      ],
      "name": "getCheapestOrder",
      "outputs": [
        {
          "internalType": "uint256",
          "name": "orderId",
          "type": "uint256"
        },
        {
          "internalType": "uint256",
          "name": "price",
          "type": "uint256"
        }
      ],
      "stateMutability": "view",
      "type": "function"
    },
    {
      "inputs": [
        {
          "internalType": "uint256",
          "name": "tokenId",
          "type": "uint256"
        }
      ],
      "name": "getMarketStats",
      "outputs": [
        {
          "internalType": "uint256",
          "name": "totalVolume",
          "type": "uint256"
        },
        {
          "internalType": "uint256",
          "name": "totalTrades",
          "type": "uint256"
        },
        {
          "internalType": "uint256",
          "name": "activeOrderCount",
          "type": "uint256"
        }
      ],
      "stateMutability": "view",
      "type": "function"
    },
    {
      "inputs": [
        {
          "internalType": "uint256",
          "name": "orderId",
          "type": "uint256"
        }
      ],
      "name": "getOrder",
      "outputs": [
        {
          "components": [
            {
              "internalType": "uint256",
              "name": "orderId",
              "type": "uint256"
            },
            {
              "internalType": "address",
              "name": "seller",
              "type": "address"
            },
            {
              "internalType": "uint256",
              "name": "tokenId",
              "type": "uint256"
            },
            {
              "internalType": "uint256",
              "name": "amount",
              "type": "uint256"
            },
            {
              "internalType": "uint256",
              "name": "pricePerCredit",
              "type": "uint256"
            },
            {
              "internalType": "uint256",
              "name": "createdAt",
              "type": "uint256"
            },
            {
              "internalType": "bool",
              "name": "isActive",
              "type": "bool"
            }
          ],
          "internalType": "struct CarbonMarketplace.Order",
          "name": "",
          "type": "tuple"
        }
      ],
      "stateMutability": "view",
      "type": "function"
    },
    {
      "inputs": [
        {
          "internalType": "uint256[]",
          "name": "orderIds",
          "type": "uint256[]"
        }
      ],
      "name": "getOrders",
      "outputs": [
        {
          "components": [
            {
              "internalType": "uint256",
              "name": "orderId",
              "type": "uint256"
            },
            {
              "internalType": "address",
              "name": "seller",
              "type": "address"
            },
            {
              "internalType": "uint256",
              "name": "tokenId",
              "type": "uint256"
            },
            {
              "internalType": "uint256",
              "name": "amount",
              "type": "uint256"
            },
            {
              "internalType": "uint256",
              "name": "pricePerCredit",
              "type": "uint256"
            },
            {
              "internalType": "uint256",
              "name": "createdAt",
              "type": "uint256"
            },
            {
              "internalType": "bool",
              "name": "isActive",
              "type": "bool"
            }
          ],
          "internalType": "struct CarbonMarketplace.Order[]",
          "name": "",
          "type": "tuple[]"
        }
      ],
      "stateMutability": "view",
      "type": "function"
    },
    {
      "inputs": [
        {
          "internalType": "address",
          "name": "seller",
          "type": "address"
        }
      ],
      "name": "getOrdersBySeller",
      "outputs": [
        {
          "internalType": "uint256[]",
          "name": "",
          "type": "uint256[]"
        }
      ],
      "stateMutability": "view",
      "type": "function"
    },
    {
      "inputs": [
        {
          "internalType": "uint256",
          "name": "tokenId",
          "type": "uint256"
        }
      ],
      "name": "getOrdersByToken",
      "outputs": [
        {
          "internalType": "uint256[]",
          "name": "",
          "type": "uint256[]"
        }
      ],
      "stateMutability": "view",
      "type": "function"
    },
    {
      "inputs": [],
      "name": "getTotalOrders",
      "outputs": [
        {
          "internalType": "uint256",
          "name": "",
          "type": "uint256"
        }
      ],
      "stateMutability": "view",
      "type": "function"
    },
    {
      "inputs": [
        {
          "internalType": "address",
          "name": "",
          "type": "address"
        },
        {
          "internalType": "address",
          "name": "",
          "type": "address"
        },
        {
          "internalType": "uint256[]",
          "name": "",
          "type": "uint256[]"
        },
        {
          "internalType": "uint256[]",
          "name": "",
          "type": "uint256[]"
        },
        {
          "internalType": "bytes",
          "name": "",
          "type": "bytes"
        }
      ],
      "name": "onERC1155BatchReceived",
      "outputs": [
        {
          "internalType": "bytes4",
          "name": "",
          "type": "bytes4"
        }
      ],
      "stateMutability": "nonpayable",
      "type": "function"
    },
    {
      "inputs": [
        {
          "internalType": "address",
          "name": "",
          "type": "address"
        },
        {
          "internalType": "address",
          "name": "",
          "type": "address"
        },
        {
          "internalType": "uint256",
          "name": "",
          "type": "uint256"
        },
        {
          "internalType": "uint256",
          "name": "",
          "type": "uint256"
        },
        {
          "internalType": "bytes",
          "name": "",
          "type": "bytes"
        }
      ],
      "name": "onERC1155Received",
      "outputs": [
        {
          "internalType": "bytes4",
          "name": "",
          "type": "bytes4"
        }
      ],
      "stateMutability": "nonpayable",
      "type": "function"
    },
    {
      "inputs": [
        {
          "internalType": "uint256",
          "name": "",
          "type": "uint256"
        }
      ],
      "name": "orders",
      "outputs": [
        {
          "internalType": "uint256",
          "name": "orderId",
          "type": "uint256"
        },
        {
          "internalType": "address",
          "name": "seller",
          "type": "address"
        },
        {
          "internalType": "uint256",
          "name": "tokenId",
          "type": "uint256"
        },
        {
          "internalType": "uint256",
          "name": "amount",
          "type": "uint256"
        },
        {
          "internalType": "uint256",
          "name": "pricePerCredit",
          "type": "uint256"
        },
        {
          "internalType": "uint256",
          "name": "createdAt",
          "type": "uint256"
        },
        {
          "internalType": "bool",
          "name": "isActive",
          "type": "bool"
        }
      ],
      "stateMutability": "view",
      "type": "function"
    },
    {
      "inputs": [],
      "name": "owner",
      "outputs": [
        {
          "internalType": "address",
          "name": "",
          "type": "address"
        }
      ],
      "stateMutability": "view",
      "type": "function"
    },
    {
      "inputs": [],
      "name": "pause",
      "outputs": [],
      "stateMutability": "nonpayable",
      "type": "function"
    },
    {
      "inputs": [],
      "name": "paused",
      "outputs": [
        {
          "internalType": "bool",
          "name": "",
          "type": "bool"
        }
      ],
      "stateMutability": "view",
      "type": "function"
    },
    {
      "inputs": [],
      "name": "renounceOwnership",
      "outputs": [],
      "stateMutability": "nonpayable",
      "type": "function"
    },
    {
      "inputs": [
        {
          "internalType": "uint256",
          "name": "newFeeBps",
          "type": "uint256"
        }
      ],
      "name": "setTradingFee",
      "outputs": [],
      "stateMutability": "nonpayable",
      "type": "function"
    },
    {
      "inputs": [
        {
          "internalType": "address",
          "name": "newTreasury",
          "type": "address"
        }
      ],
      "name": "setTreasury",
      "outputs": [],
      "stateMutability": "nonpayable",
      "type": "function"
    },
    {
      "inputs": [
        {
          "internalType": "bytes4",
          "name": "interfaceId",
          "type": "bytes4"
        }
      ],
      "name": "supportsInterface",
      "outputs": [
        {
          "internalType": "bool",
          "name": "",
          "type": "bool"
        }
      ],
      "stateMutability": "view",
      "type": "function"
    },
    {
      "inputs": [
        {
          "internalType": "uint256",
          "name": "",
          "type": "uint256"
        }
      ],
      "name": "totalTradesByToken",
      "outputs": [
        {
          "internalType": "uint256",
          "name": "",
          "type": "uint256"
        }
      ],
      "stateMutability": "view",
      "type": "function"
    },
    {
      "inputs": [
        {
          "internalType": "uint256",
          "name": "",
          "type": "uint256"
        }
      ],
      "name": "totalVolumeByToken",
      "outputs": [
        {
          "internalType": "uint256",
          "name": "",
          "type": "uint256"
        }
      ],
      "stateMutability": "view",
      "type": "function"
    },
    {
      "inputs": [],
      "name": "tradingFeeBps",
      "outputs": [
        {
          "internalType": "uint256",
          "name": "",
          "type": "uint256"
        }
      ],
      "stateMutability": "view",
      "type": "function"
    },
    {
      "inputs": [
        {
          "internalType": "address",
          "name": "newOwner",
          "type": "address"
        }
      ],
      "name": "transferOwnership",
      "outputs": [],
      "stateMutability": "nonpayable",
      "type": "function"
    },
    {
      "inputs": [],
      "name": "treasuryAddress",
      "outputs": [
        {
          "internalType": "address",
          "name": "",
          "type": "address"
        }
      ],
      "stateMutability": "view",
      "type": "function"
    },
    {
      "inputs": [],
      "name": "unpause",
      "outputs": [],
      "stateMutability": "nonpayable",
      "type": "function"
    }
  ],
  "bytecode": "0x6080346101f257601f611e1a38819003918201601f19168301916001600160401b038311848410176101f7578084926060946040528339810103126101f2576100478161020d565b9061006060406100596020840161020d565b920161020d565b9033156101dc5760008054336001600160a01b0319821681178355604051959290916001600160a01b0316907f8be0079c531659141344cd1fd0a4f28419497f9722a3daafe3b4186f6b6457e09080a3600180556032600a556001600160a01b031692831561019a57506001600160a01b0316908115610166576001600160a01b031691821561012e5760018060a01b0319600254161760025560018060a01b0319600354161760035560018060a01b031960045416176004556001600555604051611bf890816102228239f35b60405162461bcd60e51b815260206004820152601060248201526f496e76616c696420747265617375727960801b6044820152606490fd5b60405162461bcd60e51b815260206004820152600c60248201526b125b9d985b1a590818d554d160a21b6044820152606490fd5b62461bcd60e51b815260206004820152601460248201527f496e76616c69642063726564697420746f6b656e0000000000000000000000006044820152606490fd5b631e4fbdf760e01b600052600060045260246000fd5b600080fd5b634e487b7160e01b600052604160045260246000fd5b51906001600160a01b03821682036101f25756fe608080604052600436101561001357600080fd5b600090813560e01c90816301ffc9a7146116295750806303652027146114a75780631fccf6721461147e578063271a7be4146113f0578063375f16a7146113b05780633a219c29146110bf5780633f4ba83a14611051578063479c845714610e10578063514fcac714610cda578063576ac05814610bcd57806358057fe514610ae75780635a3a545014610abd5780635c975abb14610a98578063715018a614610a3e5780637a202cc1146109cc5780638456cb591461096b578063854af62114610837578063899e5d851461080e5780638da5cb5b146107e7578063924cca9a146107c95780639e899806146106e7578063a8174e5d14610673578063a85c38ef146105fa578063b0d54bcf14610566578063bc197c81146104cd578063c2656523146103f5578063c5f956af146103cc578063c7685750146103a2578063d09ef2411461030f578063d55be8c6146102f2578063f0f442601461026f578063f23a6e61146102145763f2fde38b1461018c57600080fd5b34610211576020366003190112610211576101a561171e565b6101ad611af3565b6001600160a01b031680156101fd5781546001600160a01b03198116821783556001600160a01b03167f8be0079c531659141344cd1fd0a4f28419497f9722a3daafe3b4186f6b6457e08380a380f35b631e4fbdf760e01b82526004829052602482fd5b80fd5b50346102115760a03660031901126102115761022e61171e565b50610237611734565b5060843567ffffffffffffffff811161026b57610258903690600401611813565b5060405163f23a6e6160e01b8152602090f35b5080fd5b50346102115760203660031901126102115761028961171e565b610291611af3565b6001600160a01b031680156102bb576bffffffffffffffffffffffff60a01b600454161760045580f35b60405162461bcd60e51b815260206004820152600f60248201526e496e76616c6964206164647265737360881b6044820152606490fd5b503461021157806003193601126102115760206040516101f48152f35b503461021157602036600319011261021157604060e09161032e61186a565b50600435815260066020522060ff60066040519261034b8461174a565b8054845260018060a01b036001820154166020850152600281015460408501526003810154606085015260048101546080850152600581015460a0850152015416151560c08201526103a0604051809261167e565bf35b50346102115760203660031901126102115760406020916004358152600b83522054604051908152f35b50346102115780600319360112610211576004546040516001600160a01b039091168152602090f35b50346102115760203660031901126102115760043581526008602052604081206040518082602082945493848152019085526020852092855b8181106104b45750506104439250038261177c565b6000198291835b81518110156104a45761045d81836118a1565b51855260066020526040852060ff60068201541680610497575b610485575b5060010161044a565b6004810154905494509250600161047c565b5083600482015410610477565b6040848482519182526020820152f35b845483526001948501948694506020909301920161042e565b50346102115760a0366003190112610211576104e761171e565b506104f0611734565b5060443567ffffffffffffffff811161026b576105119036906004016117b6565b5060643567ffffffffffffffff811161026b576105329036906004016117b6565b5060843567ffffffffffffffff811161026b57610553903690600401611813565b5060405163bc197c8160e01b8152602090f35b503461021157602036600319011261021157600435610583611af3565b6101f481116105c65760407f048ced0cbfd080780177282231c1bcf4b2e117ba3c76f5081b3dbab6dc6e1e1b91600a549080600a5582519182526020820152a180f35b60405162461bcd60e51b815260206004820152600c60248201526b08ccaca40e8dede40d0d2ced60a31b6044820152606490fd5b503461021157602036600319011261021157604060e091600435815260066020522080549060018060a01b03600182015416906002810154600382015460048301549160ff600660058601549501541694604051968752602087015260408601526060850152608084015260a0830152151560c0820152f35b5034610211576020366003190112610211576004358152600860205260408120604051918260208354918281520192825260208220915b8181106106d1576106cd856106c18187038261177c565b604051918291826116e4565b0390f35b82548452602090930192600192830192016106aa565b503461021157806003193601126102115760095481805b828110610786575061070f90611a7f565b9180805b83811061072857604051806106cd87826116e4565b61073181611a17565b90549060031b1c8252600660205260ff600660408420015416610757575b600101610713565b9161077e60019161076785611a17565b90549060031b1c61077882896118a1565b526119cf565b92905061074f565b61078f81611a17565b90549060031b1c8452600660205260ff6006604086200154166107b5575b6001016106fe565b906107c16001916119cf565b9190506107ad565b50346102115780600319360112610211576020600a54604051908152f35b5034610211578060031936011261021157546040516001600160a01b039091168152602090f35b50346102115780600319360112610211576002546040516001600160a01b039091168152602090f35b5034610211576020366003190112610211576001600160a01b0361085961171e565b168152600760205260408120906040518083602082955493848152019084526020842092845b8181106109525750506108949250038361177c565b80815b83518110156108de576108aa81856118a1565b518352600660205260ff6006604085200154166108ca575b600101610897565b906108d66001916119cf565b9190506108c2565b506108e890611a7f565b918190825b81518110156109445761090081836118a1565b518452600660205260ff600660408620015416610920575b6001016108ed565b9161093c60019161093185856118a1565b5161077882896118a1565b929050610918565b604051806106cd87826116e4565b845483526001948501948794506020909301920161087f565b5034610211578060031936011261021157610984611af3565b61098c611ab1565b805460ff60a01b1916600160a01b1781556040513381527f62e78cea01bee320cd4e420270b5ea74000d11b0c9f74754ebdbfc544b05a25890602090a180f35b5034610211576020366003190112610211576001600160a01b036109ee61171e565b168152600760205260408120604051918260208354918281520192825260208220915b818110610a28576106cd856106c18187038261177c565b8254845260209093019260019283019201610a11565b5034610211578060031936011261021157610a57611af3565b80546001600160a01b03198116825581906001600160a01b03167f8be0079c531659141344cd1fd0a4f28419497f9722a3daafe3b4186f6b6457e08280a380f35b503461021157806003193601126102115760ff6020915460a01c166040519015158152f35b50346102115760203660031901126102115760406020916004358152600c83522054604051908152f35b503461021157602036600319011261021157600435808252600860205260408220916040518084602082965493848152019084526020842092845b818110610bb4575050610b379250038461177c565b8092815b8151811015610b8257610b4e81836118a1565b518352600660205260ff600660408520015416610b6e575b600101610b3b565b93610b7a6001916119cf565b949050610b66565b5050818152600b6020908152604080832054938352600c82529182902054825193845290830152810191909152606090f35b8454835260019485019488945060209093019201610b22565b5034610211576020366003190112610211576004358152600860205260408120906040518083602082955493848152019084526020842092845b818110610cc1575050610c1c9250038361177c565b80815b8351811015610c6657610c3281856118a1565b518352600660205260ff600660408520015416610c52575b600101610c1f565b90610c5e6001916119cf565b919050610c4a565b50610c7090611a7f565b918190825b815181101561094457610c8881836118a1565b518452600660205260ff600660408620015416610ca8575b600101610c75565b91610cb960019161093185856118a1565b929050610ca0565b8454835260019485019487945060209093019201610c07565b503461021157602036600319011261021157600435610cf7611ad1565b8082526006602052604082206006810190815491610d1760ff84166118cb565b60018201546001600160a01b031690338203610dd957859360ff1916905560018060a01b03600254166003600284015493015490803b15610dd557610d779385809460405196879586948593637921219560e11b855230600486016119de565b03925af18015610dca57610db5575b505033907fc0362da6f2ff36b382b34aec0814f6b3cdf89f5ef282a1d1f114d0c0b036d5968380a36001805580f35b81610dbf9161177c565b61026b578138610d86565b6040513d84823e3d90fd5b8480fd5b60405162461bcd60e51b815260206004820152600f60248201526e2737ba1037b93232b91037bbb732b960891b6044820152606490fd5b503461021157610e1f366116c9565b610e27611ab1565b610e2f611ad1565b8183526006602052604083209160068301610e4d60ff8254166118cb565b610e58831515611983565b60038401610e69815485111561190a565b670de0b6b3a7640000610e8060048701548661194d565b0490612710610e91600a548461194d565b0492610e9d8484611976565b600354600189018054909492610ec39290916001600160a01b0390811691339116611b1c565b8461102c575b600280549801805490988a91906001600160a01b0316803b1561102857898391610f0c9383604051809681958294637921219560e11b84523330600486016119de565b03925af18015610dca5761100f575b5050610f28878254611976565b815587548952600b60205260408920805490858201809211610ffb575587548952600c60205260408920610f5c81546119cf565b90555480610fbd575060ff19815416905560018060a01b039054169454936040519485526020850152604084015260608301527f9e121b9f167c2054a12c8a0c6223a1a7a514529803a71aefbfe840c2dea56f7f60803393a45b6001805580f35b949596505050505060405192835260208301527fe1b1efa896a0985bd09763ae69defcfd25b4cc498fdfa8147e06627c2e0855ba60403393a3610fb6565b634e487b7160e01b8b52601160045260248bfd5b816110199161177c565b611024578838610f1b565b8880fd5b8280fd5b60035460045461104c9187916001600160a01b0390811691339116611b1c565b610ec9565b503461021157806003193601126102115761106a611af3565b805460ff8160a01c16156110b05760ff60a01b191681556040513381527f5db9ee0a495bf2e6ff9c91a7834c1ba4fdd244a5e8aa4e537bd38aeae4b073aa90602090a180f35b638dfc202b60e01b8252600482fd5b5034610211576060366003190112610211576044356004356024356110e2611ab1565b6110ea611ad1565b6110f5811515611983565b821561137257600254604051627eeac760e11b8152336004820152602481018490526001600160a01b039091169390602081604481885afa80156112f2578391879161133d575b5010611301576005549361114f856119cf565b600555803b156112fd57856040518092637921219560e11b825281838161117c898b3033600486016119de565b03925af180156112f2576112de575b506040516111988161174a565b848152600660208201913383526040810186815260608201868152608083019086825260a084019242845260c0850196600188528b8d528660205260408d2095518655600186019060018060a01b039051166bffffffffffffffffffffffff60a01b825416179055516002850155516003840155516004830155516005820155019051151560ff80198354169116179055338552600760205261123e8460408720611a4a565b82855260086020526112538460408720611a4a565b60095494600160401b8610156112ca5750611278856001602097016009556009611a32565b81549060031b9086821b91600019901b191617905560405191825284820152827f92669f7499828c9972b3a5b6c0b107ca011f143600fd7b32517024d4a3d7ab2860403393a460018055604051908152f35b634e487b7160e01b81526041600452602490fd5b856112eb9196929661177c565b933861118b565b6040513d88823e3d90fd5b8580fd5b60405162461bcd60e51b8152602060048201526014602482015273496e73756666696369656e742062616c616e636560601b6044820152606490fd5b9150506020813d60201161136a575b816113596020938361177c565b810103126112fd578290513861113c565b3d915061134c565b60405162461bcd60e51b81526020600482015260166024820152755072696365206d75737420626520706f73697469766560501b6044820152606490fd5b50346102115780600319360112610211576005546000198101919082116113dc57602082604051908152f35b634e487b7160e01b81526011600452602490fd5b503461021157611442670de0b6b3a76400009160046040611410366116c9565b9390815260066020522061142a60ff6006830154166118cb565b61143a600382015484111561190a565b01549061194d565b04612710611452600a548361194d565b04906106cd6114618383611976565b604051938493846040919493926060820195825260208201520152565b50346102115780600319360112610211576003546040516001600160a01b039091168152602090f35b50346102115760203660031901126102115760043567ffffffffffffffff811161026b573660238201121561026b5780600401359067ffffffffffffffff8211611028573660248360051b83010111611028576115038261179e565b90611511604051928361177c565b828252601f196115208461179e565b01845b818110611612575050835b838110156115c15760019060248160051b84010135865260066020526040862060ff60066040519261155f8461174a565b80548452858060a01b0386820154166020850152600281015460408501526003810154606085015260048101546080850152600581015460a0850152015416151560c08201526115af82866118a1565b526115ba81856118a1565b500161152e565b8285604051918291602083016020845282518091526020604085019301915b8181106115ee575050500390f35b91935091602060e082611604600194885161167e565b0194019101918493926115e0565b60209061161d61186a565b82828701015201611523565b90503461026b57602036600319011261026b5760043563ffffffff60e01b81168091036110285760209250630271189760e51b811490811561166d575b5015158152f35b6301ffc9a760e01b14905038611666565b60c080918051845260018060a01b03602082015116602085015260408101516040850152606081015160608501526080810151608085015260a081015160a085015201511515910152565b60409060031901126116df576004359060243590565b600080fd5b602060408183019282815284518094520192019060005b8181106117085750505090565b82518452602093840193909201916001016116fb565b600435906001600160a01b03821682036116df57565b602435906001600160a01b03821682036116df57565b60e0810190811067ffffffffffffffff82111761176657604052565b634e487b7160e01b600052604160045260246000fd5b90601f8019910116810190811067ffffffffffffffff82111761176657604052565b67ffffffffffffffff81116117665760051b60200190565b9080601f830112156116df5781356117cd8161179e565b926117db604051948561177c565b81845260208085019260051b8201019283116116df57602001905b8282106118035750505090565b81358152602091820191016117f6565b81601f820112156116df5780359067ffffffffffffffff82116117665760405192611848601f8401601f19166020018561177c565b828452602083830101116116df57816000926020809301838601378301015290565b604051906118778261174a565b600060c0838281528260208201528260408201528260608201528260808201528260a08201520152565b80518210156118b55760209160051b010190565b634e487b7160e01b600052603260045260246000fd5b156118d257565b60405162461bcd60e51b815260206004820152601060248201526f4f72646572206e6f742061637469766560801b6044820152606490fd5b1561191157565b60405162461bcd60e51b815260206004820152601460248201527320b6b7bab73a1032bc31b2b2b2399037b93232b960611b6044820152606490fd5b8181029291811591840414171561196057565b634e487b7160e01b600052601160045260246000fd5b9190820391821161196057565b1561198a57565b60405162461bcd60e51b815260206004820152601760248201527f416d6f756e74206d75737420626520706f7369746976650000000000000000006044820152606490fd5b60001981146119605760010190565b6001600160a01b039182168152911660208201526040810191909152606081019190915260a06080820181905260009082015260c00190565b6009548110156118b557600960005260206000200190600090565b80548210156118b55760005260206000200190600090565b8054600160401b81101561176657611a6791600182018155611a32565b819291549060031b91821b91600019901b1916179055565b90611a898261179e565b611a96604051918261177c565b8281528092611aa7601f199161179e565b0190602036910137565b60ff60005460a01c16611ac057565b63d93c066560e01b60005260046000fd5b600260015414611ae2576002600155565b633ee5aeb560e01b60005260046000fd5b6000546001600160a01b03163303611b0757565b63118cdaa760e01b6000523360045260246000fd5b6040516323b872dd60e01b60208083019182526001600160a01b0394851660248401529490931660448201526064808201959095529384529260009190611b6460848261177c565b519082855af115611bb6576000513d611bad57506001600160a01b0381163b155b611b8c5750565b635274afe760e01b60009081526001600160a01b0391909116600452602490fd5b60011415611b85565b6040513d6000823e3d90fdfea2646970667358221220078a8a46a6a4b76d0a8b810c08067df160ff1775c5bbbb8e0ec8a19750a79cb064736f6c634300081c0033",
  "linkReferences": {},
  "deployedLinkReferences": {}
}