{
  "_format": "hh-sol-artifact-1",
  "contractName": "FundingPool",
  "sourceName": "contracts/FundingPool.sol",
  "abi": [
    {
      "inputs": [
        {
          "internalType": "address",
          "name": "_cUSD",
          "type": "address"
        },
        {
          "internalType": "address",
          "name": "_taskRegistry",
          "type": "address"
        },
        {
          "internalType": "address",
          "name": "_treasury",
          "type": "address"
        }
      ],
      "stateMutability": "nonpayable",
      "type": "constructor"
    },
    {
      "inputs": [],
      "name": "EnforcedPause",
      "type": "error"
    },
    {
      "inputs": [],
      "name": "ExpectedPause",
      "type": "error"
    },
    {
      "inputs": [
        {
          "internalType": "address",
          "name": "owner",
          "type": "address"
        }
      ],
      "name": "OwnableInvalidOwner",
      "type": "error"
    },
    {
      "inputs": [
        {
          "internalType": "address",
          "name": "account",
          "type": "address"
        }
      ],
      "name": "OwnableUnauthorizedAccount",
      "type": "error"
    },
    {
      "inputs": [],
      "name": "ReentrancyGuardReentrantCall",
      "type": "error"
    },
    {
      "inputs": [
        {
          "internalType": "address",
          "name": "token",
          "type": "address"
        }
      ],
      "name": "SafeERC20FailedOperation",
      "type": "error"
    },
    {
      "anonymous": false,
      "inputs": [
        {
          "indexed": true,
          "internalType": "uint256",
          "name": "taskId",
          "type": "uint256"
        },
        {
          "indexed": true,
          "internalType": "address",
          "name": "funder",
          "type": "address"
        },
        {
          "indexed": false,
          "internalType": "uint256",
          "name": "amount",
          "type": "uint256"
        }
      ],
      "name": "FundingReceived",
      "type": "event"
    },
    {
      "anonymous": false,
      "inputs": [
        {
          "indexed": true,
          "internalType": "uint256",
          "name": "taskId",
          "type": "uint256"
        },
        {
          "indexed": true,
          "internalType": "address",
          "name": "funder",
          "type": "address"
        },
        {
          "indexed": false,
          "internalType": "uint256",
          "name": "amount",
          "type": "uint256"
        },
        {
          "indexed": false,
          "internalType": "uint256",
          "name": "penalty",
          "type": "uint256"
        }
      ],
      "name": "FundingWithdrawn",
      "type": "event"
    },
    {
      "anonymous": false,
      "inputs": [
        {
          "indexed": true,
          "internalType": "address",
          "name": "previousOwner",
          "type": "address"
        },
        {
          "indexed": true,
          "internalType": "address",
          "name": "newOwner",
          "type": "address"
        }
      ],
      "name": "OwnershipTransferred",
      "type": "event"
    },
    {
      "anonymous": false,
      "inputs": [
        {
          "indexed": false,
          "internalType": "address",
          "name": "account",
          "type": "address"
        }
      ],
      "name": "Paused",
      "type": "event"
    },
    {
      "anonymous": false,
      "inputs": [
        {
          "indexed": true,
          "internalType": "uint256",
          "name": "taskId",
          "type": "uint256"
        },
        {
          "indexed": true,
          "internalType": "address",
          "name": "operator",
          "type": "address"
        },
        {
          "indexed": false,
          "internalType": "uint256",
          "name": "amount",
          "type": "uint256"
        },
        {
          "indexed": false,
          "internalType": "uint256",
          "name": "platformFee",
          "type": "uint256"
        }
      ],
      "name": "PaymentReleased",
      "type": "event"
    },
    {
      "anonymous": false,
      "inputs": [
        {
          "indexed": false,
          "internalType": "uint256",
          "name": "oldFee",
          "type": "uint256"
        },
        {
          "indexed": false,
          "internalType": "uint256",
          "name": "newFee",
          "type": "uint256"
        }
      ],
      "name": "PlatformFeeUpdated",
      "type": "event"
    },
    {
      "anonymous": false,
      "inputs": [
        {
          "indexed": true,
          "internalType": "uint256",
          "name": "taskId",
          "type": "uint256"
        },
        {
          "indexed": true,
          "internalType": "address",
          "name": "funder",
          "type": "address"
        },
        {
          "indexed": false,
          "internalType": "uint256",
          "name": "amount",
          "type": "uint256"
        }
      ],
      "name": "RefundClaimed",
      "type": "event"
    },
    {
      "anonymous": false,
      "inputs": [
        {
          "indexed": true,
          "internalType": "uint256",
          "name": "taskId",
          "type": "uint256"
        }
      ],
      "name": "RefundsEnabled",
      "type": "event"
    },
    {
      "anonymous": false,
      "inputs": [
        {
          "indexed": true,
          "internalType": "uint256",
          "name": "taskId",
          "type": "uint256"
        },
        {
          "indexed": false,
          "internalType": "uint256",
          "name": "totalFunded",
          "type": "uint256"
        }
      ],
      "name": "TargetReached",
      "type": "event"
    },
    {
      "anonymous": false,
      "inputs": [
        {
          "indexed": false,
          "internalType": "address",
          "name": "account",
          "type": "address"
        }
      ],
      "name": "Unpaused",
      "type": "event"
    },
    {
      "inputs": [],
      "name": "MAX_FEE_BPS",
      "outputs": [
        {
          "internalType": "uint256",
          "name": "",
          "type": "uint256"
        }
      ],
      "stateMutability": "view",
      "type": "function"
    },
    {
      "inputs": [],
      "name": "cUSD",
      "outputs": [
        {
          "internalType": "contract IERC20",
          "name": "",
          "type": "address"
        }
      ],
      "stateMutability": "view",
      "type": "function"
    },
    {
      "inputs": [
        {
          "internalType": "uint256",
          "name": "taskId",
          "type": "uint256"
        }
      ],
      "name": "claimRefund",
      "outputs": [],
      "stateMutability": "nonpayable",
      "type": "function"
    },
    {
      "inputs": [
        {
          "internalType": "uint256",
          "name": "taskId",
          "type": "uint256"
        }
      ],
      "name": "enableRefunds",
      "outputs": [],
      "stateMutability": "nonpayable",
      "type": "function"
    },
    {
      "inputs": [
        {
          "internalType": "uint256",
          "name": "taskId",
          "type": "uint256"
        },
        {
          "internalType": "uint256",
          "name": "amount",
          "type": "uint256"
        }
      ],
      "name": "fundTask",
      "outputs": [],
      "stateMutability": "nonpayable",
      "type": "function"
    },
    {
      "inputs": [
        {
          "internalType": "uint256",
          "name": "",
          "type": "uint256"
        },
        {
          "internalType": "address",
          "name": "",
          "type": "address"
        }
      ],
      "name": "funderShares",
      "outputs": [
        {
          "internalType": "uint256",
          "name": "",
          "type": "uint256"
        }
      ],
      "stateMutability": "view",
      "type": "function"
    },
    {
      "inputs": [
        {
          "internalType": "uint256",
          "name": "taskId",
          "type": "uint256"
        },
        {
          "internalType": "address",
          "name": "funder",
          "type": "address"
        }
      ],
      "name": "getFunderShare",
      "outputs": [
        {
          "internalType": "uint256",
          "name": "",
          "type": "uint256"
        }
      ],
      "stateMutability": "view",
      "type": "function"
    },
    {
      "inputs": [
        {
          "internalType": "uint256",
          "name": "taskId",
          "type": "uint256"
        }
      ],
      "name": "getFunders",
      "outputs": [
        {
          "internalType": "address[]",
          "name": "",
          "type": "address[]"
        }
      ],
      "stateMutability": "view",
      "type": "function"
    },
    {
      "inputs": [
        {
          "internalType": "uint256",
          "name": "taskId",
          "type": "uint256"
        }
      ],
      "name": "getFundersWithShares",
      "outputs": [
        {
          "internalType": "address[]",
          "name": "funders",
          "type": "address[]"
        },
        {
          "internalType": "uint256[]",
          "name": "shares",
          "type": "uint256[]"
        }
      ],
      "stateMutability": "view",
      "type": "function"
    },
    {
      "inputs": [
        {
          "internalType": "uint256",
          "name": "taskId",
          "type": "uint256"
        }
      ],
      "name": "getFundingProgress",
      "outputs": [
        {
          "internalType": "uint256",
          "name": "funded",
          "type": "uint256"
        },
        {
          "internalType": "uint256",
          "name": "target",
          "type": "uint256"
        },
        {
          "internalType": "uint256",
          "name": "percentage",
          "type": "uint256"
        }
      ],
      "stateMutability": "view",
      "type": "function"
    },
    {
      "inputs": [
        {
          "internalType": "uint256",
          "name": "taskId",
          "type": "uint256"
        }
      ],
      "name": "getPool",
      "outputs": [
        {
          "internalType": "uint256",
          "name": "totalFunded",
          "type": "uint256"
        },
        {
          "internalType": "uint256",
          "name": "fundersCount",
          "type": "uint256"
        },
        {
          "internalType": "bool",
          "name": "paymentReleased",
          "type": "bool"
        },
        {
          "internalType": "bool",
          "name": "refundsEnabled",
          "type": "bool"
        }
      ],
      "stateMutability": "view",
      "type": "function"
    },
    {
      "inputs": [
        {
          "internalType": "uint256",
          "name": "taskId",
          "type": "uint256"
        },
        {
          "internalType": "address",
          "name": "funder",
          "type": "address"
        }
      ],
      "name": "getSharePercentage",
      "outputs": [
        {
          "internalType": "uint256",
          "name": "",
          "type": "uint256"
        }
      ],
      "stateMutability": "view",
      "type": "function"
    },
    {
      "inputs": [],
      "name": "owner",
      "outputs": [
        {
          "internalType": "address",
          "name": "",
          "type": "address"
        }
      ],
      "stateMutability": "view",
      "type": "function"
    },
    {
      "inputs": [],
      "name": "pause",
      "outputs": [],
      "stateMutability": "nonpayable",
      "type": "function"
    },
    {
      "inputs": [],
      "name": "paused",
      "outputs": [
        {
          "internalType": "bool",
          "name": "",
          "type": "bool"
        }
      ],
      "stateMutability": "view",
      "type": "function"
    },
    {
      "inputs": [],
      "name": "platformFeeBps",
      "outputs": [
        {
          "internalType": "uint256",
          "name": "",
          "type": "uint256"
        }
      ],
      "stateMutability": "view",
      "type": "function"
    },
    {
      "inputs": [
        {
          "internalType": "uint256",
          "name": "",
          "type": "uint256"
        }
      ],
      "name": "pools",
      "outputs": [
        {
          "internalType": "uint256",
          "name": "totalFunded",
          "type": "uint256"
        },
        {
          "internalType": "uint256",
          "name": "fundersCount",
          "type": "uint256"
        },
        {
          "internalType": "bool",
          "name": "paymentReleased",
          "type": "bool"
        },
        {
          "internalType": "bool",
          "name": "refundsEnabled",
          "type": "bool"
        }
      ],
      "stateMutability": "view",
      "type": "function"
    },
    {
      "inputs": [
        {
          "internalType": "uint256",
          "name": "taskId",
          "type": "uint256"
        }
      ],
      "name": "releasePayment",
      "outputs": [],
      "stateMutability": "nonpayable",
      "type": "function"
    },
    {
      "inputs": [],
      "name": "renounceOwnership",
      "outputs": [],
      "stateMutability": "nonpayable",
      "type": "function"
    },
    {
      "inputs": [
        {
          "internalType": "uint256",
          "name": "newFeeBps",
          "type": "uint256"
        }
      ],
      "name": "setPlatformFee",
      "outputs": [],
      "stateMutability": "nonpayable",
      "type": "function"
    },
    {
      "inputs": [
        {
          "internalType": "address",
          "name": "newTreasury",
          "type": "address"
        }
      ],
      "name": "setTreasury",
      "outputs": [],
      "stateMutability": "nonpayable",
      "type": "function"
    },
    {
      "inputs": [
        {
          "internalType": "uint256",
          "name": "newPenaltyBps",
          "type": "uint256"
        }
      ],
      "name": "setWithdrawalPenalty",
      "outputs": [],
      "stateMutability": "nonpayable",
      "type": "function"
    },
    {
      "inputs": [],
      "name": "taskRegistry",
      "outputs": [
        {
          "internalType": "contract ITaskRegistry",
          "name": "",
          "type": "address"
        }
      ],
      "stateMutability": "view",
      "type": "function"
    },
    {
      "inputs": [
        {
          "internalType": "address",
          "name": "newOwner",
          "type": "address"
        }
      ],
      "name": "transferOwnership",
      "outputs": [],
      "stateMutability": "nonpayable",
      "type": "function"
    },
    {
      "inputs": [],
      "name": "treasuryAddress",
      "outputs": [
        {
          "internalType": "address",
          "name": "",
          "type": "address"
        }
      ],
      "stateMutability": "view",
      "type": "function"
    },
    {
      "inputs": [],
      "name": "unpause",
      "outputs": [],
      "stateMutability": "nonpayable",
      "type": "function"
    },
    {
      "inputs": [
        {
          "internalType": "uint256",
          "name": "taskId",
          "type": "uint256"
        }
      ],
      "name": "withdrawFunding",
      "outputs": [],
      "stateMutability": "nonpayable",
      "type": "function"
    },
    {
      "inputs": [],
      "name": "withdrawalPenaltyBps",
      "outputs": [
        {
          "internalType": "uint256",
          "name": "",
          "type": "uint256"
        }
      ],
      "stateMutability": "view",
      "type": "function"
    }
  ],
  "bytecode": "0x60a03461022857601f611c3f38819003918201601f19168301916001600160401b0383118484101761022d578084926060946040528339810103126102285761004781610243565b90610060604061005960208401610243565b9201610243565b9033156102125760008054336001600160a01b0319821681178355604051959290916001600160a01b0316907f8be0079c531659141344cd1fd0a4f28419497f9722a3daafe3b4186f6b6457e09080a36001805560c860068190556008556001600160a01b03169283156101d057506001600160a01b031690811561018b576001600160a01b03169182156101465760805260018060a01b0319600254161760025560018060a01b031960075416176007556040516119e79081610258823960805181818161068301528181610a0501528181610d100152818161122601526113c60152f35b60405162461bcd60e51b815260206004820152601860248201527f496e76616c6964207472656173757279206164647265737300000000000000006044820152606490fd5b60405162461bcd60e51b815260206004820152601860248201527f496e76616c6964207265676973747279206164647265737300000000000000006044820152606490fd5b62461bcd60e51b815260206004820152601460248201527f496e76616c6964206355534420616464726573730000000000000000000000006044820152606490fd5b631e4fbdf760e01b600052600060045260246000fd5b600080fd5b634e487b7160e01b600052604160045260246000fd5b51906001600160a01b03821682036102285756fe6080604052600436101561001257600080fd5b6000803560e01c806236ee9214611007578063068bcd8d146114b85780631112a78b1461148957806312e8e2c3146113f55780631fccf672146113b057806322dcd13e146113925780633697f055146111395780633a7b6c74146110b85780633f4ba83a1461104a5780634035bfba146110075780634d4780d814610c4557806352b2380914610ad25780635b7baf64146109835780635c975abb1461095e57806366fc012714610940578063715018a6146108e65780637faaa6c1146108825780638456cb591461082157806388685cd9146105955780638da5cb5b1461056e5780639e498f1614610545578063ac4afa38146104dd578063c337b7571461038f578063c5f956af14610366578063d55be8c614610349578063f0f44260146102c6578063f2fde38b146102405763ff4c5f6b1461015057600080fd5b3461023d57602036600319011261023d5760246004358260018060a01b036002541660405193848092630eb2f3bf60e11b82528560048301525afa918215610232578392610200575b508252600360205260408220549080156101f75761271082029282840461271014831517156101e357506101cf8160609461163a565b905b60405192835260208301526040820152f35b634e487b7160e01b81526011600452602490fd5b606092906101d1565b61021d9192503d8085833e61021581836115d9565b810190611741565b50505050505050505050925050509038610199565b6040513d85823e3d90fd5b80fd5b503461023d57602036600319011261023d5761025a611586565b61026261189d565b6001600160a01b031680156102b25781546001600160a01b03198116821783556001600160a01b03167f8be0079c531659141344cd1fd0a4f28419497f9722a3daafe3b4186f6b6457e08380a380f35b631e4fbdf760e01b82526004829052602482fd5b503461023d57602036600319011261023d576102e0611586565b6102e861189d565b6001600160a01b03168015610312576bffffffffffffffffffffffff60a01b600754161760075580f35b60405162461bcd60e51b815260206004820152600f60248201526e496e76616c6964206164647265737360881b6044820152606490fd5b503461023d578060031936011261023d5760206040516101f48152f35b503461023d578060031936011261023d576007546040516001600160a01b039091168152602090f35b503461023d57602036600319011261023d57600435808252600560205260408220916040518084602082965493848152019084526020842092845b8181106104bb5750506103df925003846115d9565b8251906104046103ee8361185b565b926103fc60405194856115d9565b80845261185b565b602083019390601f1901368537815b8551811015610465578183526004602052604080842060019291906001600160a01b03610440848b611873565b511690600091858060a01b03168252602052205461045e8287611873565b5201610413565b5050610483939291602060405195869560408752604087019061159c565b918583038287015251918281520192915b8181106104a2575050500390f35b8251845285945060209384019390920191600101610494565b84546001600160a01b03168352600194850194889450602090930192016103ca565b503461023d57602036600319011261023d5760409060043581526003602052208054906105416002600183015492015460405193849360ff808460081c16931691859260609295949195608085019685526020850152151560408401521515910152565b0390f35b503461023d578060031936011261023d576002546040516001600160a01b039091168152602090f35b503461023d578060031936011261023d57546040516001600160a01b039091168152602090f35b503461023d57602036600319011261023d576004356105b26118e6565b808252600360205260408220906002820180549260ff84166107dc57549283156107a157600254604051630eb2f3bf60e11b815260048101859052908690829060249082906001600160a01b03165afa908115610796578690879261076c575b5060068110156107585760040361071f576001600160a01b0381169485156106e3577f8cdc8dc08e54a4e57f52077ecf1b4c508758513439cae2aa325dcc85b922fca893600160409460ff191617905561067c61271061067460065484611611565b048092611841565b916106a9837f00000000000000000000000000000000000000000000000000000000000000009283611908565b81806106c4575b505082519182526020820152a36001805580f35b6007546106dc926001600160a01b0390911690611908565b38816106b0565b60405162461bcd60e51b8152602060048201526014602482015273139bc81bdc195c985d1bdc88185cdcda59db995960621b6044820152606490fd5b60405162461bcd60e51b815260206004820152601160248201527015185cdac81b9bdd081d995c9a599a5959607a1b6044820152606490fd5b634e487b7160e01b87526021600452602487fd5b905061078291503d8088833e61021581836115d9565b50509a505097505050505050505038610612565b6040513d88823e3d90fd5b60405162461bcd60e51b81526020600482015260136024820152724e6f2066756e647320746f2072656c6561736560681b6044820152606490fd5b60405162461bcd60e51b815260206004820152601860248201527f5061796d656e7420616c72656164792072656c656173656400000000000000006044820152606490fd5b503461023d578060031936011261023d5761083a61189d565b6108426118c6565b805460ff60a01b1916600160a01b1781556040513381527f62e78cea01bee320cd4e420270b5ea74000d11b0c9f74754ebdbfc544b05a25890602090a180f35b503461023d57602036600319011261023d5760043561089f61189d565b6103e881116108ae5760085580f35b60405162461bcd60e51b815260206004820152601060248201526f0a0cadcc2d8e8f240e8dede40d0d2ced60831b6044820152606490fd5b503461023d578060031936011261023d576108ff61189d565b80546001600160a01b03198116825581906001600160a01b03167f8be0079c531659141344cd1fd0a4f28419497f9722a3daafe3b4186f6b6457e08280a380f35b503461023d578060031936011261023d576020600854604051908152f35b503461023d578060031936011261023d5760ff6020915460a01c166040519015158152f35b503461023d57602036600319011261023d576004356109a06118e6565b808252600360205260ff600260408420015460081c1615610a97578082526004602090815260408084203360009081529252902054908115610a5c5780835260046020526040832060018060a01b03331660005260205282604060002055610a2982337f0000000000000000000000000000000000000000000000000000000000000000611908565b6040519182527ff3f402280ef0a7905e124aa621b65eaeb2725c343e8b36d398ed78c29daf285c60203393a36001805580f35b60405162461bcd60e51b8152602060048201526013602482015272139bc81cda185c995cc81d1bc81c99599d5b99606a1b6044820152606490fd5b60405162461bcd60e51b81526020600482015260136024820152721499599d5b991cc81b9bdd08195b98589b1959606a1b6044820152606490fd5b503461023d57602036600319011261023d57600435808252600360205260026040832001805460ff8160081c16610c0057600254604051630eb2f3bf60e11b815260048101859052908590829060249082906001600160a01b03165afa908115610bf5578591610bcd575b506006811015610bb957600503610b805761ff0019166101001790557f01fd9d9d9f159bbb346cbe96d08df5b61108b672fa79a2d53fb9c67b9717d2738280a280f35b60405162461bcd60e51b815260206004820152601160248201527015185cdac81b9bdd081c995a9958dd1959607a1b6044820152606490fd5b634e487b7160e01b85526021600452602485fd5b610be191503d8087833e61021581836115d9565b505050509850505050505050505038610b3d565b6040513d87823e3d90fd5b60405162461bcd60e51b815260206004820152601760248201527f526566756e647320616c726561647920656e61626c65640000000000000000006044820152606490fd5b503461023d57604036600319011261023d57600435602435610c656118c6565b610c6d6118e6565b8015610fc257600254604051630eb2f3bf60e11b815260048101849052908490829060249082906001600160a01b03165afa8015610e6b5784918591610f97575b506006811015610bb957610f52578284526003602052604084209181610cd582855461184e565b11610f1457610d346040516323b872dd60e01b602082015233602482015230604482015282606482015260648152610d0e6084826115d9565b7f000000000000000000000000000000000000000000000000000000000000000061194a565b83855260046020908152604080872033885290915285205415610e7a575b610d5d81845461184e565b835583855260046020908152604080872033885290915285208054610d8390839061184e565b9055604051908152837fc8fceb94d8cfaf3010a32f39dbdb0c0b361b10cdd6c7299d60376c85ff61283760203393a381541015610dc3575b826001805580f35b60025483906001600160a01b0316803b15610e765781906024604051809481936347ae701d60e01b83528860048401525af18015610e6b57610e34575b5060207f55e38235e3172711a1cd9fdff917de66242ced19d8436fa71b527910f5f0767b9154604051908152a23880610dbb565b83610e637f55e38235e3172711a1cd9fdff917de66242ced19d8436fa71b527910f5f0767b93956020936115d9565b939150610e00565b6040513d86823e3d90fd5b5080fd5b6001830180546000198114610f0057600101905583855260056020526040852080549068010000000000000000821015610eec5760018201808255821015610ed8578652602086200180546001600160a01b03191633179055610d52565b634e487b7160e01b87526032600452602487fd5b634e487b7160e01b87526041600452602487fd5b634e487b7160e01b87526011600452602487fd5b60405162461bcd60e51b8152602060048201526016602482015275115e18d959591cc8199d5b991a5b99c81d185c99d95d60521b6044820152606490fd5b60405162461bcd60e51b815260206004820152601b60248201527f5461736b206e6f7420696e2050726f706f7365642073746174757300000000006044820152606490fd5b9050610fad91503d8086833e61021581836115d9565b50505050985050505050509150509038610cae565b60405162461bcd60e51b815260206004820152601760248201527f416d6f756e74206d75737420626520706f7369746976650000000000000000006044820152606490fd5b503461023d57604036600319011261023d57604060209161102661156b565b60048035835284528282206001600160a01b03909116825283522054604051908152f35b503461023d578060031936011261023d5761106361189d565b805460ff8160a01c16156110a95760ff60a01b191681556040513381527f5db9ee0a495bf2e6ff9c91a7834c1ba4fdd244a5e8aa4e537bd38aeae4b073aa90602090a180f35b638dfc202b60e01b8252600482fd5b503461023d57602036600319011261023d576004358152600560205260408120604051918260208354918281520192825260208220915b81811061111a5761054185611106818703826115d9565b60405191829160208352602083019061159c565b82546001600160a01b03168452602090930192600192830192016110ef565b503461023d57602036600319011261023d576004356111566118c6565b61115e6118e6565b600254604051630eb2f3bf60e11b815260048101839052908390829060249082906001600160a01b03165afa90811561023257839161136a575b50600681101561135657611303578082526004602090815260408084203385529091528220549081156112c6576127106111d460085484611611565b0460016111e18285611841565b9383865260036020526111f960408720918254611841565b815501805480156112b25760001901905581845260046020908152604080862033808852925285208590557f00000000000000000000000000000000000000000000000000000000000000009061125290859083611908565b8180611293575b505060405192835260208301527f2d2af26b4f3bf73fbeadd535d5a023083d91ef14c3004e69dcfe4c0f4dbfc79460403393a36001805580f35b6007546112ab926001600160a01b0390911690611908565b3881611259565b634e487b7160e01b86526011600452602486fd5b60405162461bcd60e51b81526020600482015260156024820152744e6f2073686172657320746f20776974686472617760581b6044820152606490fd5b60405162461bcd60e51b815260206004820152602560248201527f43616e206f6e6c792077697468647261772066726f6d2050726f706f736564206044820152647461736b7360d81b6064820152608490fd5b634e487b7160e01b83526021600452602483fd5b61137e91503d8085833e61021581836115d9565b505050509850505050505050505038611198565b503461023d578060031936011261023d576020600654604051908152f35b503461023d578060031936011261023d576040517f00000000000000000000000000000000000000000000000000000000000000006001600160a01b03168152602090f35b503461023d57602036600319011261023d5760043561141261189d565b6101f481116114555760407fd347e206f25a89b917fc9482f1a2d294d749baa4dc9bde7fb495ee11fe49164391600654908060065582519182526020820152a180f35b60405162461bcd60e51b815260206004820152600c60248201526b08ccaca40e8dede40d0d2ced60a31b6044820152606490fd5b503461023d57604036600319011261023d5760206114b06114a861156b565b60043561165a565b604051908152f35b503461023d57602036600319011261023d5760043581526003602052604081209060405190608082019082821067ffffffffffffffff83111761155757506040526105416060835492838152600260018601549586602084015201549060ff80831615159283604084015260081c1615159283910152604051948594859260609295949195608085019685526020850152151560408401521515910152565b634e487b7160e01b81526041600452602490fd5b602435906001600160a01b038216820361158157565b600080fd5b600435906001600160a01b038216820361158157565b906020808351928381520192019060005b8181106115ba5750505090565b82516001600160a01b03168452602093840193909201916001016115ad565b90601f8019910116810190811067ffffffffffffffff8211176115fb57604052565b634e487b7160e01b600052604160045260246000fd5b8181029291811591840414171561162457565b634e487b7160e01b600052601160045260246000fd5b8115611644570490565b634e487b7160e01b600052601260045260246000fd5b908160005260036020526040600020549182156116b557600052600460205260406000209060018060a01b0316600052602052604060002054906127108202918083046127101490151715611624576116b29161163a565b90565b505050600090565b51906001600160a01b038216820361158157565b81601f820112156115815780519067ffffffffffffffff82116115fb5760405192611706601f8401601f1916602001856115d9565b828452602083830101116115815760005b82811061172c57505060206000918301015290565b80602080928401015182828701015201611717565b9190916101c0818403126115815780519261175e602083016116bd565b92604083015167ffffffffffffffff8111611581578261177f9185016116d1565b9260608101519260808201519260a083015167ffffffffffffffff811161158157826117ac9185016116d1565b9260c08101519260e082015167ffffffffffffffff811161158157816117d39184016116d1565b9261010083015167ffffffffffffffff811161158157826117f59185016116d1565b92610120810151600681101561158157926101408201519261181a61016084016116bd565b92610180810151926101a082015167ffffffffffffffff8111611581576116b292016116d1565b9190820391821161162457565b9190820180921161162457565b67ffffffffffffffff81116115fb5760051b60200190565b80518210156118875760209160051b010190565b634e487b7160e01b600052603260045260246000fd5b6000546001600160a01b031633036118b157565b63118cdaa760e01b6000523360045260246000fd5b60ff60005460a01c166118d557565b63d93c066560e01b60005260046000fd5b6002600154146118f7576002600155565b633ee5aeb560e01b60005260046000fd5b60405163a9059cbb60e01b60208201526001600160a01b039092166024830152604480830193909352918152611948916119436064836115d9565b61194a565b565b906000602091828151910182855af1156119a5576000513d61199c57506001600160a01b0381163b155b61197b5750565b635274afe760e01b60009081526001600160a01b0391909116600452602490fd5b60011415611974565b6040513d6000823e3d90fdfea26469706673582212203e97cb058ca8fcd3c0d5a767fafcd04b1bf5ba0f9a7ec6eaa4a864bbef2b907864736f6c634300081c0033",
  "linkReferences": {},
  "deployedLinkReferences": {}
}