{
  "_format": "hh-sol-artifact-1",
  "contractName": "ModelRegistry",
  "sourceName": "contracts/ModelRegistry.sol",
  "abi": [
    {
      "inputs": [
        {
          "internalType": "address",
          "name": "_cUSD",
          "type": "address"
        }
      ],
      "stateMutability": "nonpayable",
      "type": "constructor"
    },
    {
      "inputs": [],
      "name": "EnforcedPause",
      "type": "error"
    },
    {
      "inputs": [],
      "name": "ExpectedPause",
      "type": "error"
    },
    {
      "inputs": [
        {
          "internalType": "address",
          "name": "owner",
          "type": "address"
        }
      ],
      "name": "OwnableInvalidOwner",
      "type": "error"
    },
    {
      "inputs": [
        {
          "internalType": "address",
          "name": "account",
          "type": "address"
        }
      ],
      "name": "OwnableUnauthorizedAccount",
      "type": "error"
    },
    {
      "inputs": [],
      "name": "ReentrancyGuardReentrantCall",
      "type": "error"
    },
    {
      "inputs": [
        {
          "internalType": "address",
          "name": "token",
          "type": "address"
        }
      ],
      "name": "SafeERC20FailedOperation",
      "type": "error"
    },
    {
      "anonymous": false,
      "inputs": [
        {
          "indexed": true,
          "internalType": "uint256",
          "name": "modelId",
          "type": "uint256"
        },
        {
          "indexed": false,
          "internalType": "string",
          "name": "reason",
          "type": "string"
        }
      ],
      "name": "ModelDeactivated",
      "type": "event"
    },
    {
      "anonymous": false,
      "inputs": [
        {
          "indexed": true,
          "internalType": "uint256",
          "name": "modelId",
          "type": "uint256"
        },
        {
          "indexed": true,
          "internalType": "address",
          "name": "owner",
          "type": "address"
        },
        {
          "indexed": false,
          "internalType": "string",
          "name": "name",
          "type": "string"
        },
        {
          "indexed": false,
          "internalType": "uint256",
          "name": "stake",
          "type": "uint256"
        }
      ],
      "name": "ModelRegistered",
      "type": "event"
    },
    {
      "anonymous": false,
      "inputs": [
        {
          "indexed": true,
          "internalType": "uint256",
          "name": "modelId",
          "type": "uint256"
        },
        {
          "indexed": false,
          "internalType": "string",
          "name": "ipfsHash",
          "type": "string"
        }
      ],
      "name": "ModelUpdated",
      "type": "event"
    },
    {
      "anonymous": false,
      "inputs": [
        {
          "indexed": true,
          "internalType": "address",
          "name": "previousOwner",
          "type": "address"
        },
        {
          "indexed": true,
          "internalType": "address",
          "name": "newOwner",
          "type": "address"
        }
      ],
      "name": "OwnershipTransferred",
      "type": "event"
    },
    {
      "anonymous": false,
      "inputs": [
        {
          "indexed": false,
          "internalType": "address",
          "name": "account",
          "type": "address"
        }
      ],
      "name": "Paused",
      "type": "event"
    },
    {
      "anonymous": false,
      "inputs": [
        {
          "indexed": true,
          "internalType": "uint256",
          "name": "modelId",
          "type": "uint256"
        },
        {
          "indexed": true,
          "internalType": "uint256",
          "name": "taskId",
          "type": "uint256"
        },
        {
          "indexed": false,
          "internalType": "bool",
          "name": "predictedOutcome",
          "type": "bool"
        },
        {
          "indexed": false,
          "internalType": "uint256",
          "name": "confidence",
          "type": "uint256"
        }
      ],
      "name": "PredictionRecorded",
      "type": "event"
    },
    {
      "anonymous": false,
      "inputs": [
        {
          "indexed": true,
          "internalType": "uint256",
          "name": "modelId",
          "type": "uint256"
        },
        {
          "indexed": true,
          "internalType": "uint256",
          "name": "taskId",
          "type": "uint256"
        },
        {
          "indexed": false,
          "internalType": "bool",
          "name": "wasCorrect",
          "type": "bool"
        }
      ],
      "name": "PredictionResolved",
      "type": "event"
    },
    {
      "anonymous": false,
      "inputs": [
        {
          "indexed": true,
          "internalType": "uint256",
          "name": "modelId",
          "type": "uint256"
        },
        {
          "indexed": true,
          "internalType": "address",
          "name": "owner",
          "type": "address"
        },
        {
          "indexed": false,
          "internalType": "uint256",
          "name": "amount",
          "type": "uint256"
        }
      ],
      "name": "RewardPaid",
      "type": "event"
    },
    {
      "anonymous": false,
      "inputs": [
        {
          "indexed": true,
          "internalType": "uint256",
          "name": "modelId",
          "type": "uint256"
        },
        {
          "indexed": false,
          "internalType": "uint256",
          "name": "amount",
          "type": "uint256"
        }
      ],
      "name": "StakeAdded",
      "type": "event"
    },
    {
      "anonymous": false,
      "inputs": [
        {
          "indexed": true,
          "internalType": "uint256",
          "name": "modelId",
          "type": "uint256"
        },
        {
          "indexed": false,
          "internalType": "uint256",
          "name": "amount",
          "type": "uint256"
        },
        {
          "indexed": false,
          "internalType": "string",
          "name": "reason",
          "type": "string"
        }
      ],
      "name": "StakeSlashed",
      "type": "event"
    },
    {
      "anonymous": false,
      "inputs": [
        {
          "indexed": true,
          "internalType": "uint256",
          "name": "modelId",
          "type": "uint256"
        },
        {
          "indexed": false,
          "internalType": "uint256",
          "name": "amount",
          "type": "uint256"
        }
      ],
      "name": "StakeWithdrawn",
      "type": "event"
    },
    {
      "anonymous": false,
      "inputs": [
        {
          "indexed": false,
          "internalType": "address",
          "name": "account",
          "type": "address"
        }
      ],
      "name": "Unpaused",
      "type": "event"
    },
    {
      "inputs": [
        {
          "internalType": "uint256",
          "name": "modelId",
          "type": "uint256"
        },
        {
          "internalType": "uint256",
          "name": "amount",
          "type": "uint256"
        }
      ],
      "name": "addStake",
      "outputs": [],
      "stateMutability": "nonpayable",
      "type": "function"
    },
    {
      "inputs": [],
      "name": "baseReward",
      "outputs": [
        {
          "internalType": "uint256",
          "name": "",
          "type": "uint256"
        }
      ],
      "stateMutability": "view",
      "type": "function"
    },
    {
      "inputs": [],
      "name": "cUSD",
      "outputs": [
        {
          "internalType": "contract IERC20",
          "name": "",
          "type": "address"
        }
      ],
      "stateMutability": "view",
      "type": "function"
    },
    {
      "inputs": [
        {
          "internalType": "uint256",
          "name": "modelId",
          "type": "uint256"
        },
        {
          "internalType": "uint256",
          "name": "confidence",
          "type": "uint256"
        }
      ],
      "name": "calculateExpectedReward",
      "outputs": [
        {
          "internalType": "uint256",
          "name": "",
          "type": "uint256"
        }
      ],
      "stateMutability": "view",
      "type": "function"
    },
    {
      "inputs": [
        {
          "internalType": "uint256",
          "name": "modelId",
          "type": "uint256"
        },
        {
          "internalType": "string",
          "name": "reason",
          "type": "string"
        }
      ],
      "name": "deactivateModel",
      "outputs": [],
      "stateMutability": "nonpayable",
      "type": "function"
    },
    {
      "inputs": [],
      "name": "getActiveModels",
      "outputs": [
        {
          "internalType": "uint256[]",
          "name": "",
          "type": "uint256[]"
        }
      ],
      "stateMutability": "view",
      "type": "function"
    },
    {
      "inputs": [
        {
          "internalType": "uint256",
          "name": "taskId",
          "type": "uint256"
        }
      ],
      "name": "getConsensusPrediction",
      "outputs": [
        {
          "internalType": "bool",
          "name": "predictedOutcome",
          "type": "bool"
        },
        {
          "internalType": "uint256",
          "name": "confidence",
          "type": "uint256"
        },
        {
          "internalType": "uint256",
          "name": "agreementCount",
          "type": "uint256"
        }
      ],
      "stateMutability": "view",
      "type": "function"
    },
    {
      "inputs": [
        {
          "internalType": "uint256",
          "name": "modelId",
          "type": "uint256"
        }
      ],
      "name": "getModel",
      "outputs": [
        {
          "components": [
            {
              "internalType": "uint256",
              "name": "id",
              "type": "uint256"
            },
            {
              "internalType": "address",
              "name": "owner",
              "type": "address"
            },
            {
              "internalType": "string",
              "name": "name",
              "type": "string"
            },
            {
              "internalType": "string",
              "name": "description",
              "type": "string"
            },
            {
              "internalType": "string",
              "name": "ipfsHash",
              "type": "string"
            },
            {
              "internalType": "string",
              "name": "architecture",
              "type": "string"
            },
            {
              "internalType": "uint256",
              "name": "stake",
              "type": "uint256"
            },
            {
              "internalType": "uint256",
              "name": "registeredAt",
              "type": "uint256"
            },
            {
              "internalType": "bool",
              "name": "isActive",
              "type": "bool"
            },
            {
              "internalType": "uint256",
              "name": "totalPredictions",
              "type": "uint256"
            },
            {
              "internalType": "uint256",
              "name": "correctPredictions",
              "type": "uint256"
            },
            {
              "internalType": "uint256",
              "name": "accuracy",
              "type": "uint256"
            },
            {
              "internalType": "uint256",
              "name": "reputationScore",
              "type": "uint256"
            },
            {
              "internalType": "uint256",
              "name": "totalRewardsEarned",
              "type": "uint256"
            }
          ],
          "internalType": "struct ModelRegistry.Model",
          "name": "",
          "type": "tuple"
        }
      ],
      "stateMutability": "view",
      "type": "function"
    },
    {
      "inputs": [
        {
          "internalType": "uint256",
          "name": "modelId",
          "type": "uint256"
        }
      ],
      "name": "getModelPerformance",
      "outputs": [
        {
          "internalType": "uint256",
          "name": "totalPredictions",
          "type": "uint256"
        },
        {
          "internalType": "uint256",
          "name": "correctPredictions",
          "type": "uint256"
        },
        {
          "internalType": "uint256",
          "name": "accuracy",
          "type": "uint256"
        },
        {
          "internalType": "uint256",
          "name": "reputationScore",
          "type": "uint256"
        }
      ],
      "stateMutability": "view",
      "type": "function"
    },
    {
      "inputs": [
        {
          "internalType": "uint256[]",
          "name": "modelIds",
          "type": "uint256[]"
        }
      ],
      "name": "getModels",
      "outputs": [
        {
          "components": [
            {
              "internalType": "uint256",
              "name": "id",
              "type": "uint256"
            },
            {
              "internalType": "address",
              "name": "owner",
              "type": "address"
            },
            {
              "internalType": "string",
              "name": "name",
              "type": "string"
            },
            {
              "internalType": "string",
              "name": "description",
              "type": "string"
            },
            {
              "internalType": "string",
              "name": "ipfsHash",
              "type": "string"
            },
            {
              "internalType": "string",
              "name": "architecture",
              "type": "string"
            },
            {
              "internalType": "uint256",
              "name": "stake",
              "type": "uint256"
            },
            {
              "internalType": "uint256",
              "name": "registeredAt",
              "type": "uint256"
            },
            {
              "internalType": "bool",
              "name": "isActive",
              "type": "bool"
            },
            {
              "internalType": "uint256",
              "name": "totalPredictions",
              "type": "uint256"
            },
            {
              "internalType": "uint256",
              "name": "correctPredictions",
              "type": "uint256"
            },
            {
              "internalType": "uint256",
              "name": "accuracy",
              "type": "uint256"
            },
            {
              "internalType": "uint256",
              "name": "reputationScore",
              "type": "uint256"
            },
            {
              "internalType": "uint256",
              "name": "totalRewardsEarned",
              "type": "uint256"
            }
          ],
          "internalType": "struct ModelRegistry.Model[]",
          "name": "",
          "type": "tuple[]"
        }
      ],
      "stateMutability": "view",
      "type": "function"
    },
    {
      "inputs": [
        {
          "internalType": "address",
          "name": "owner",
          "type": "address"
        }
      ],
      "name": "getModelsByOwner",
      "outputs": [
        {
          "internalType": "uint256[]",
          "name": "",
          "type": "uint256[]"
        }
      ],
      "stateMutability": "view",
      "type": "function"
    },
    {
      "inputs": [
        {
          "internalType": "uint256",
          "name": "taskId",
          "type": "uint256"
        },
        {
          "internalType": "uint256",
          "name": "modelId",
          "type": "uint256"
        }
      ],
      "name": "getPrediction",
      "outputs": [
        {
          "components": [
            {
              "internalType": "uint256",
              "name": "modelId",
              "type": "uint256"
            },
            {
              "internalType": "uint256",
              "name": "taskId",
              "type": "uint256"
            },
            {
              "internalType": "bool",
              "name": "predictedOutcome",
              "type": "bool"
            },
            {
              "internalType": "uint256",
              "name": "confidence",
              "type": "uint256"
            },
            {
              "internalType": "uint256",
              "name": "timestamp",
              "type": "uint256"
            },
            {
              "internalType": "bool",
              "name": "isResolved",
              "type": "bool"
            },
            {
              "internalType": "bool",
              "name": "wasCorrect",
              "type": "bool"
            }
          ],
          "internalType": "struct ModelRegistry.Prediction",
          "name": "",
          "type": "tuple"
        }
      ],
      "stateMutability": "view",
      "type": "function"
    },
    {
      "inputs": [
        {
          "internalType": "uint256",
          "name": "taskId",
          "type": "uint256"
        }
      ],
      "name": "getTaskPredictions",
      "outputs": [
        {
          "internalType": "uint256[]",
          "name": "modelIds",
          "type": "uint256[]"
        },
        {
          "components": [
            {
              "internalType": "uint256",
              "name": "modelId",
              "type": "uint256"
            },
            {
              "internalType": "uint256",
              "name": "taskId",
              "type": "uint256"
            },
            {
              "internalType": "bool",
              "name": "predictedOutcome",
              "type": "bool"
            },
            {
              "internalType": "uint256",
              "name": "confidence",
              "type": "uint256"
            },
            {
              "internalType": "uint256",
              "name": "timestamp",
              "type": "uint256"
            },
            {
              "internalType": "bool",
              "name": "isResolved",
              "type": "bool"
            },
            {
              "internalType": "bool",
              "name": "wasCorrect",
              "type": "bool"
            }
          ],
          "internalType": "struct ModelRegistry.Prediction[]",
          "name": "predictionData",
          "type": "tuple[]"
        }
      ],
      "stateMutability": "view",
      "type": "function"
    },
    {
      "inputs": [
        {
          "internalType": "uint256",
          "name": "count",
          "type": "uint256"
        }
      ],
      "name": "getTopModels",
      "outputs": [
        {
          "internalType": "uint256[]",
          "name": "",
          "type": "uint256[]"
        }
      ],
      "stateMutability": "view",
      "type": "function"
    },
    {
      "inputs": [],
      "name": "getTotalModels",
      "outputs": [
        {
          "internalType": "uint256",
          "name": "",
          "type": "uint256"
        }
      ],
      "stateMutability": "view",
      "type": "function"
    },
    {
      "inputs": [],
      "name": "minimumAccuracy",
      "outputs": [
        {
          "internalType": "uint256",
          "name": "",
          "type": "uint256"
        }
      ],
      "stateMutability": "view",
      "type": "function"
    },
    {
      "inputs": [],
      "name": "minimumStake",
      "outputs": [
        {
          "internalType": "uint256",
          "name": "",
          "type": "uint256"
        }
      ],
      "stateMutability": "view",
      "type": "function"
    },
    {
      "inputs": [
        {
          "internalType": "uint256",
          "name": "",
          "type": "uint256"
        }
      ],
      "name": "models",
      "outputs": [
        {
          "internalType": "uint256",
          "name": "id",
          "type": "uint256"
        },
        {
          "internalType": "address",
          "name": "owner",
          "type": "address"
        },
        {
          "internalType": "string",
          "name": "name",
          "type": "string"
        },
        {
          "internalType": "string",
          "name": "description",
          "type": "string"
        },
        {
          "internalType": "string",
          "name": "ipfsHash",
          "type": "string"
        },
        {
          "internalType": "string",
          "name": "architecture",
          "type": "string"
        },
        {
          "internalType": "uint256",
          "name": "stake",
          "type": "uint256"
        },
        {
          "internalType": "uint256",
          "name": "registeredAt",
          "type": "uint256"
        },
        {
          "internalType": "bool",
          "name": "isActive",
          "type": "bool"
        },
        {
          "internalType": "uint256",
          "name": "totalPredictions",
          "type": "uint256"
        },
        {
          "internalType": "uint256",
          "name": "correctPredictions",
          "type": "uint256"
        },
        {
          "internalType": "uint256",
          "name": "accuracy",
          "type": "uint256"
        },
        {
          "internalType": "uint256",
          "name": "reputationScore",
          "type": "uint256"
        },
        {
          "internalType": "uint256",
          "name": "totalRewardsEarned",
          "type": "uint256"
        }
      ],
      "stateMutability": "view",
      "type": "function"
    },
    {
      "inputs": [],
      "name": "owner",
      "outputs": [
        {
          "internalType": "address",
          "name": "",
          "type": "address"
        }
      ],
      "stateMutability": "view",
      "type": "function"
    },
    {
      "inputs": [],
      "name": "pause",
      "outputs": [],
      "stateMutability": "nonpayable",
      "type": "function"
    },
    {
      "inputs": [],
      "name": "paused",
      "outputs": [
        {
          "internalType": "bool",
          "name": "",
          "type": "bool"
        }
      ],
      "stateMutability": "view",
      "type": "function"
    },
    {
      "inputs": [
        {
          "internalType": "uint256",
          "name": "",
          "type": "uint256"
        },
        {
          "internalType": "uint256",
          "name": "",
          "type": "uint256"
        }
      ],
      "name": "predictions",
      "outputs": [
        {
          "internalType": "uint256",
          "name": "modelId",
          "type": "uint256"
        },
        {
          "internalType": "uint256",
          "name": "taskId",
          "type": "uint256"
        },
        {
          "internalType": "bool",
          "name": "predictedOutcome",
          "type": "bool"
        },
        {
          "internalType": "uint256",
          "name": "confidence",
          "type": "uint256"
        },
        {
          "internalType": "uint256",
          "name": "timestamp",
          "type": "uint256"
        },
        {
          "internalType": "bool",
          "name": "isResolved",
          "type": "bool"
        },
        {
          "internalType": "bool",
          "name": "wasCorrect",
          "type": "bool"
        }
      ],
      "stateMutability": "view",
      "type": "function"
    },
    {
      "inputs": [
        {
          "internalType": "uint256",
          "name": "modelId",
          "type": "uint256"
        }
      ],
      "name": "reactivateModel",
      "outputs": [],
      "stateMutability": "nonpayable",
      "type": "function"
    },
    {
      "inputs": [
        {
          "internalType": "uint256",
          "name": "modelId",
          "type": "uint256"
        },
        {
          "internalType": "uint256",
          "name": "taskId",
          "type": "uint256"
        },
        {
          "internalType": "bool",
          "name": "predictedOutcome",
          "type": "bool"
        },
        {
          "internalType": "uint256",
          "name": "confidence",
          "type": "uint256"
        }
      ],
      "name": "recordPrediction",
      "outputs": [],
      "stateMutability": "nonpayable",
      "type": "function"
    },
    {
      "inputs": [
        {
          "internalType": "string",
          "name": "name",
          "type": "string"
        },
        {
          "internalType": "string",
          "name": "description",
          "type": "string"
        },
        {
          "internalType": "string",
          "name": "ipfsHash",
          "type": "string"
        },
        {
          "internalType": "string",
          "name": "architecture",
          "type": "string"
        },
        {
          "internalType": "uint256",
          "name": "stakeAmount",
          "type": "uint256"
        }
      ],
      "name": "registerModel",
      "outputs": [
        {
          "internalType": "uint256",
          "name": "",
          "type": "uint256"
        }
      ],
      "stateMutability": "nonpayable",
      "type": "function"
    },
    {
      "inputs": [],
      "name": "renounceOwnership",
      "outputs": [],
      "stateMutability": "nonpayable",
      "type": "function"
    },
    {
      "inputs": [
        {
          "internalType": "uint256",
          "name": "newReward",
          "type": "uint256"
        }
      ],
      "name": "setBaseReward",
      "outputs": [],
      "stateMutability": "nonpayable",
      "type": "function"
    },
    {
      "inputs": [
        {
          "internalType": "uint256",
          "name": "newMinimum",
          "type": "uint256"
        }
      ],
      "name": "setMinimumAccuracy",
      "outputs": [],
      "stateMutability": "nonpayable",
      "type": "function"
    },
    {
      "inputs": [
        {
          "internalType": "uint256",
          "name": "newMinimum",
          "type": "uint256"
        }
      ],
      "name": "setMinimumStake",
      "outputs": [],
      "stateMutability": "nonpayable",
      "type": "function"
    },
    {
      "inputs": [
        {
          "internalType": "address",
          "name": "_verificationManager",
          "type": "address"
        }
      ],
      "name": "setVerificationManager",
      "outputs": [],
      "stateMutability": "nonpayable",
      "type": "function"
    },
    {
      "inputs": [
        {
          "internalType": "address",
          "name": "newOwner",
          "type": "address"
        }
      ],
      "name": "transferOwnership",
      "outputs": [],
      "stateMutability": "nonpayable",
      "type": "function"
    },
    {
      "inputs": [],
      "name": "unpause",
      "outputs": [],
      "stateMutability": "nonpayable",
      "type": "function"
    },
    {
      "inputs": [
        {
          "internalType": "uint256",
          "name": "modelId",
          "type": "uint256"
        },
        {
          "internalType": "string",
          "name": "newIpfsHash",
          "type": "string"
        }
      ],
      "name": "updateModel",
      "outputs": [],
      "stateMutability": "nonpayable",
      "type": "function"
    },
    {
      "inputs": [
        {
          "internalType": "uint256",
          "name": "taskId",
          "type": "uint256"
        },
        {
          "internalType": "bool",
          "name": "actualOutcome",
          "type": "bool"
        }
      ],
      "name": "updateModelPerformance",
      "outputs": [],
      "stateMutability": "nonpayable",
      "type": "function"
    },
    {
      "inputs": [],
      "name": "verificationManagerAddress",
      "outputs": [
        {
          "internalType": "address",
          "name": "",
          "type": "address"
        }
      ],
      "stateMutability": "view",
      "type": "function"
    },
    {
      "inputs": [
        {
          "internalType": "uint256",
          "name": "modelId",
          "type": "uint256"
        },
        {
          "internalType": "uint256",
          "name": "amount",
          "type": "uint256"
        }
      ],
      "name": "withdrawStake",
      "outputs": [],
      "stateMutability": "nonpayable",
      "type": "function"
    }
  ],
  "bytecode": "0x60803461013757601f612de138819003918201601f19168301916001600160401b0383118484101761013c5780849260209460405283398101031261013757516001600160a01b038116908190036101375733156101215760008054336001600160a01b03198216811783556040519290916001600160a01b0316907f8be0079c531659141344cd1fd0a4f28419497f9722a3daafe3b4186f6b6457e09080a3600180556702c68af0bb140000600955678ac7230489e80000600a55611388600b5581156100f05750600280546001600160a01b0319169190911790556001600455604051612c8e90816101538239f35b62461bcd60e51b815260206004820152600c60248201526b125b9d985b1a590818d554d160a21b6044820152606490fd5b631e4fbdf760e01b600052600060045260246000fd5b600080fd5b634e487b7160e01b600052604160045260246000fdfe608080604052600436101561001357600080fd5b60003560e01c908163025ae4e214612104575080630373a23a146120e35780630e8f570d146120c55780630ea27b5b14611fcd5780631ab16a7414611f7c5780631b0a102c14611ee25780631fccf67214611eb95780632123c15914611e2a578063233e990314611e095780632e82b24414611d815780633ecb66a11461175f5780633f4ba83a146116ee57806340798199146114c957806348598dbc146111c95780634e374d5a14610fbe5780634fed0c7114610dbe57806350bab17014610d9d5780635c975abb14610d7757806362cd3b2d14610ca05780636a030ca914610b7d5780636b5b9f1814610b1b5780636d36169414610a18578063715018a6146109bf57806376ad03bc146109a15780638456cb591461093f5780638916af42146107ad5780638da5cb5b146107845780639ce7aa0114610751578063a018eef514610728578063d13413df14610634578063ec5ffac214610616578063ecd6dd6d14610454578063f1fdf46914610329578063f2fde38b1461029c578063f508dde61461025b5763fd2b5202146101ab57600080fd5b346102565760207f233959ec4291f8482a488d390a7ada24c9edfec73a9b9af88d3a44954fd2771a6101dc36612180565b6101e7939193612a2a565b6101ef612a4a565b83600052600582526006604060002061021560018060a01b0360018301541633146124b8565b6102208315156129a8565b60025461023b908490309033906001600160a01b0316612a6c565b01610247828254612773565b9055604051908152a260018055005b600080fd5b3461025657600036600319011261025657600454600019810190811161028657602090604051908152f35b634e487b7160e01b600052601160045260246000fd5b34610256576020366003190112610256576004356001600160a01b03811690819003610256576102ca612a01565b801561031357600080546001600160a01b03198116831782556001600160a01b0316907f8be0079c531659141344cd1fd0a4f28419497f9722a3daafe3b4186f6b6457e09080a3005b631e4fbdf760e01b600052600060045260246000fd5b346102565761033736612180565b61033f612a4a565b816000526005602052604060002061036460018060a01b0360018301541633146124b8565b61036f8215156129a8565b6006810191825491610383828410156124f6565b61038d82846129f4565b60095481109081159161044b575b5015610410577f3db0ca701d7c1106534c6003e5d65dae65a9cb891ad5bbb9be39c091df79d87e936103cf836020956129f4565b809155156103ff575b506002546103f290829033906001600160a01b0316612b4b565b604051908152a260018055005b600801805460ff19169055846103d8565b60405162461bcd60e51b815260206004820152601360248201527242656c6f77206d696e696d756d207374616b6560681b6044820152606490fd5b9050158661039b565b34610256576020366003190112610256576004358060005260086020526040600020906040518083602082955493848152019060005260206000209260005b8181106105fd5750506104a8925003836123f3565b81516104b3816127b3565b906104c160405192836123f3565b8082526104d0601f19916127b3565b0160005b8181106105e657505060005b8351811015610583576001908360005260076020526040600020610504828761275f565b51600052602052604060002060ff600560405192610521846123bc565b80548452858101546020850152826002820154161515604085015260038101546060850152600481015460808501520154818116151560a084015260081c16151560c0820152610571828561275f565b5261057c818461275f565b50016104e0565b61059c84836040519283926040845260408401906121dd565b82810360208401526020808351928381520192019060005b8181106105c2575050500390f35b91935091602060e0826105d86001948851612196565b0194019101918493926105b4565b6020906105f1612537565b828286010152016104d4565b8454835260019485019487945060209093019201610493565b34610256576000366003190112610256576020600954604051908152f35b3461025657600036600319011261025657600c546000805b8281106106e3575061065d906127ca565b906000805b828110610683576040516020808252819061067f908201876121dd565b0390f35b61068c81612656565b90549060031b1c600052600560205260ff600860406000200154166106b4575b600101610662565b906106db6001916106c484612656565b90549060031b1c6106d5828861275f565b526125af565b9190506106ac565b6106ec81612656565b90549060031b1c600052600560205260ff60086040600020015416610714575b60010161064c565b906107206001916125af565b91905061070c565b34610256576000366003190112610256576003546040516001600160a01b039091168152602090f35b3461025657602036600319011261025657606061076f600435612866565b90604051921515835260208301526040820152f35b34610256576000366003190112610256576000546040516001600160a01b039091168152602090f35b34610256576107bb3661234f565b91906107c5612a2a565b816000526005602052600460406000206107ec60018060a01b0360018301541633146124b8565b6107fc60ff6008830154166126e3565b61080785151561256e565b01926001600160401b0381116109295761082b816108258654612382565b86612604565b600093601f82116001146108a75761087d82807f8ebc53783e23213a06b7bbdd0bd63b77e97af33906ce56ffe8101e3bb4fbae68969760009161089c575b508160011b916000199060031b1c19161790565b90555b6108976040519283926020845260208401916126c2565b0390a2005b905085013588610869565b80855260208520601f19831695805b8781106109115750837f8ebc53783e23213a06b7bbdd0bd63b77e97af33906ce56ffe8101e3bb4fbae689697106108f7575b5050600182811b019055610880565b840135600019600385901b60f8161c1916905585806108e8565b909160206001819285890135815501930191016108b6565b634e487b7160e01b600052604160045260246000fd5b3461025657600036600319011261025657610958612a01565b610960612a2a565b6000805460ff60a01b1916600160a01b1790556040513381527f62e78cea01bee320cd4e420270b5ea74000d11b0c9f74754ebdbfc544b05a25890602090a1005b34610256576000366003190112610256576020600a54604051908152f35b34610256576000366003190112610256576109d8612a01565b600080546001600160a01b0319811682556001600160a01b03167f8be0079c531659141344cd1fd0a4f28419497f9722a3daafe3b4186f6b6457e08280a3005b3461025657602036600319011261025657610a316127fc565b50600435600052600560205261067f6040600020600d60405191610a54836123d7565b8054835260018101546001600160a01b03166020840152610a7760028201612414565b6040840152610a8860038201612414565b6060840152610a9960048201612414565b6080840152610aaa60058201612414565b60a0840152600681015460c0840152600781015460e084015260ff60088201541615156101008401526009810154610120840152600a810154610140840152600b810154610160840152600c81015461018084015201546101a082015260405191829160208352602083019061227f565b3461025657602036600319011261025657600435610b37612a01565b6127108111610b4557600b55005b60405162461bcd60e51b815260206004820152601060248201526f496e76616c696420616363757261637960801b6044820152606490fd5b34610256576020366003190112610256576004356000908152600560205260409020805460018201546001600160a01b031691610bbc60028201612414565b610bc860038301612414565b91610bd560048201612414565b92610be260058301612414565b936006830154946007840154600885015460ff1690600986015492600a87015494600b88015496600c89015498600d0154996040519d8e809e81526020015260408d016101c090526101c08d01610c389161223e565b8c810360608e0152610c499161223e565b8b810360808d0152610c5a9161223e565b8a810360a08c0152610c6b9161223e565b9760c08a015260e089015215156101008801526101208701526101408601526101608501526101808401526101a08301520390f35b3461025657610cae3661234f565b908260005260056020526008604060002060018060a01b0360018201541633148015610d63575b610cde90612722565b019182549260ff841615610d2b577fbe40b0c85c2027080eec3c74b875d0a88c6d66a202420aaac978848c3d9d81cd9360ff191690556108976040519283926020845260208401916126c2565b60405162461bcd60e51b815260206004820152601060248201526f416c726561647920696e61637469766560801b6044820152606490fd5b506000546001600160a01b03163314610cd5565b3461025657600036600319011261025657602060ff60005460a01c166040519015158152f35b34610256576020610db6610db036612180565b90612ab5565b604051908152f35b34610256576020366003190112610256576004356001600160401b03811161025657366023820112156102565780600401356001600160401b038111610256573660248260051b8401011161025657610e16816127b3565b91610e2460405193846123f3565b818352601f19610e33836127b3565b0160005b818110610fa757505060005b82811015610f3f576001906040600060248360051b860101358152600560205220600d60405191610e73836123d7565b80548352848060a01b0385820154166020840152610e9360028201612414565b6040840152610ea460038201612414565b6060840152610eb560048201612414565b6080840152610ec660058201612414565b60a0840152600681015460c0840152600781015460e084015260ff60088201541615156101008401526009810154610120840152600a810154610140840152600b810154610160840152600c81015461018084015201546101a0820152610f2d828761275f565b52610f38818661275f565b5001610e43565b836040518091602082016020835281518091526040830190602060408260051b8601019301916000905b828210610f7857505050500390f35b91936001919395506020610f978192603f198a8203018652885161227f565b9601920192018594939192610f69565b602090610fb26127fc565b82828801015201610e37565b3461025657602036600319011261025657600435600c548082116111c1575b6000805b8281106111635750610ff2906127ca565b906000805b8281106111015750505060005b81518110156110a35760018101808211610286575b825181101561109a5760019061102f838561275f565b516000526005602052600b6040600020015461104b828661275f565b516000526005602052600b6040600020015411611069575b01611019565b611073838561275f565b5161107e828661275f565b51611089858761275f565b52611094828661275f565b52611063565b50600101611004565b509081518082116110f9575b506110b9816127ca565b9160005b8281106110da576040516020808252819061067f908201876121dd565b806110e76001928461275f565b516110f2828761275f565b52016110bd565b9050826110af565b61110a81612656565b90549060031b1c6000526005602052604060002060ff6008820154169081611153575b5061113b575b600101610ff7565b9061114b6001916106c484612656565b919050611133565b600591506009015410158661112d565b61116c81612656565b90549060031b1c6000526005602052604060002060ff60088201541690816111b1575b5061119d575b600101610fe1565b906111a96001916125af565b919050611195565b600591506009015410158561118f565b905080610fdd565b346102565760403660031901126102565760043560243590811515809203610256576111f3612a4a565b6003546001600160a01b0316331480156114b5575b61121190612722565b8060005260086020526040600020906040518083602082955493848152019060005260206000209260005b81811061149c575050611251925003836123f3565b60005b825181101561149657611267818461275f565b5190826000526007602052604060002082600052602052604060002091806000526005602052604060002090600584019384549460ff8616156112b3575b505050506001915001611254565b60016112e9949660ff19161781558860ff600284015416151514938480929061ff00825491151560081b169061ff001916179055565b6113ed575b50600a840154936127108502948086046127101490151715610286576020869382600197600a61134460097f1994b2c28af1ed4d0743ee5a131bb3ec185afe5be57d34d99f3f6627eecc87889701548093612793565b9182600b85015561135484612b86565b600c850155101590816113e1575b50611379575b50604051908152a3858080806112a5565b60080160ff198154169055837fbe40b0c85c2027080eec3c74b875d0a88c6d66a202420aaac978848c3d9d81cd60606040518581526018868201527f41636375726163792062656c6f77207468726573686f6c6400000000000000006040820152a28a611368565b9050600b54118c611362565b600361140b91600a870161140181546125af565b9055015482612ab5565b8015158061148c575b156112ee57600d8501611428828254612773565b905560025460018601805484927f04492fab062412e7e4e5f46c9e919f1640652946a5e163ad6e6c1c03d87954d29260209290916114749187916001600160a01b039182169116612b4b565b546040519485526001600160a01b031693a3876112ee565b5080471015611414565b60018055005b845483526001948501948794506020909301920161123c565b506000546001600160a01b03163314611208565b34610256576080366003190112610256576004356024359060443580151580910361025657606435906114fa612a2a565b82600052600560205260406000209061152060018060a01b0360018401541633146124b8565b61153060ff6008840154166126e3565b606483116116b45784600052600760205260406000208460005260205260046040600020015461166f577fd4cd79e69ca2c946d60364572fb81c4ff1de48f1276336ddc5af4ce810f3c44792600960409361163f878961162860058951611596816123bc565b848152602081018481528b82018b815261160560608401918c8352608085019342855260a086019960008b5260c087019960008b5260005260076020526040600020906000526020528f60002095518655516001860155511515600285019060ff801983541691151516179055565b5160038301555160048201550192511515839060ff801983541691151516179055565b51815461ff00191690151560081b61ff0016179055565b876000526008602052611655878660002061269f565b0161166081546125af565b905582519182526020820152a3005b60405162461bcd60e51b815260206004820152601960248201527f50726564696374696f6e20616c726561647920657869737473000000000000006044820152606490fd5b60405162461bcd60e51b8152602060048201526012602482015271496e76616c696420636f6e666964656e636560701b6044820152606490fd5b3461025657600036600319011261025657611707612a01565b60005460ff8160a01c161561174e5760ff60a01b19166000556040513381527f5db9ee0a495bf2e6ff9c91a7834c1ba4fdd244a5e8aa4e537bd38aeae4b073aa90602090a1005b638dfc202b60e01b60005260046000fd5b346102565760a0366003190112610256576004356001600160401b0381116102565761178f903690600401612211565b906024356001600160401b038111610256576117af903690600401612211565b90916044356001600160401b038111610256576117d0903690600401612211565b926064356001600160401b038111610256576117f0903690600401612211565b959091608435956117ff612a2a565b611807612a4a565b8815611d4c5761181881151561256e565b600954871015611827906124f6565b600254611842908890309033906001600160a01b0316612a6c565b600454978894611851866125af565b60045560405196611861886123d7565b86885260208801953387528c36611878918c6125be565b9560408a01968752369061188b926125be565b9360608901948552369061189e926125be565b916080880192835236906118b1926125be565b60a0870190815260c0870189815260e0880190428252610100890192600184526101208a0194600086526101408b0196600088526101608c01986127108a526101808d019a8d60648d526101a0019c60008e5260005260056020526040600020809e51815560010190600160a01b600190039051166bffffffffffffffffffffffff60a01b82541617905560028d0190518051906001600160401b03821161092957611967826119618554612382565b85612604565b602090601f8311600114611ce557611998929160009183611b97575b50508160011b916000199060031b1c19161790565b90555b51805160038d01916001600160401b038211610929576119bf826119618554612382565b602090601f8311600114611c7e576119ef929160009183611b975750508160011b916000199060031b1c19161790565b90555b51805160048c01916001600160401b03821161092957611a16826119618554612382565b602090601f8311600114611c1757611a46929160009183611b975750508160011b916000199060031b1c19161790565b90555b51805160058b01916001600160401b03821161092957611a6d826119618554612382565b602090601f8311600114611ba25782600d9c9b9a9998979593611ad3979593611aac93600092611b975750508160011b916000199060031b1c19161790565b90555b5160068b01555160078a0155511515600889019060ff801983541691151516179055565b51600987015551600a86015551600b85015551600c84015551910155336000526006602052611b0683604060002061269f565b600c5490600160401b82101561092957602094611b807f014ed8d238576d2b30ced417ba64fa4db7c350b5f09ffa335abaefcc33047e7b92611b6e87611b55876001839901600c55600c612687565b90919082549060031b91821b91600019901b1916179055565b604051926040845260408401916126c2565b93868201528033940390a360018055604051908152f35b015190503880611983565b90601f1983169184600052816000209260005b818110611bff5750926001928592600d9f9e9d9c9b9a9896611ad39a989610611be6575b505050811b019055611aaf565b015160001960f88460031b161c19169055388080611bd9565b92936020600181928786015181550195019301611bb5565b90601f1983169184600052816000209260005b818110611c665750908460019594939210611c4d575b505050811b019055611a49565b015160001960f88460031b161c19169055388080611c40565b92936020600181928786015181550195019301611c2a565b90601f1983169184600052816000209260005b818110611ccd5750908460019594939210611cb4575b505050811b0190556119f2565b015160001960f88460031b161c19169055388080611ca7565b92936020600181928786015181550195019301611c91565b90601f1983169184600052816000209260005b818110611d345750908460019594939210611d1b575b505050811b01905561199b565b015160001960f88460031b161c19169055388080611d0e565b92936020600181928786015181550195019301611cf8565b60405162461bcd60e51b815260206004820152600d60248201526c13985b59481c995c5d5a5c9959609a1b6044820152606490fd5b34610256576020366003190112610256576004356001600160a01b0381169081900361025657611daf612a01565b8015611dd2576bffffffffffffffffffffffff60a01b6003541617600355600080f35b60405162461bcd60e51b815260206004820152600f60248201526e496e76616c6964206164647265737360881b6044820152606490fd5b3461025657602036600319011261025657611e22612a01565b600435600955005b34610256576020366003190112610256576004356001600160a01b03811690819003610256576000526006602052604060002060405190816020825491828152019160005260206000209060005b818110611ea35761067f85611e8f818703826123f3565b6040519182916020835260208301906121dd565b8254845260209093019260019283019201611e78565b34610256576000366003190112610256576002546040516001600160a01b039091168152602090f35b3461025657611ef036612180565b90611ef9612537565b50600052600760205260406000209060005260205260e0604060002060ff600560405192611f26846123bc565b8054845260018101546020850152826002820154161515604085015260038101546060850152600481015460808501520154818116151560a084015260081c16151560c0820152611f7a6040518092612196565bf35b3461025657602036600319011261025657600435600052600560205260806040600020600981015490600a81015490600c600b82015491015491604051938452602084015260408301526060820152f35b34610256576020366003190112610256576004356000526005602052604060002061200560018060a01b0360018301541633146124b8565b600881019081549060ff821661208f57612027600682015460095411156124f6565b60098101541590811561207e575b50156120465760ff19166001179055005b60405162461bcd60e51b815260206004820152601060248201526f416363757261637920746f6f206c6f7760801b6044820152606490fd5b600b91500154600b54111583612035565b60405162461bcd60e51b815260206004820152600e60248201526d416c72656164792061637469766560901b6044820152606490fd5b34610256576000366003190112610256576020600b54604051908152f35b34610256576020366003190112610256576120fc612a01565b600435600a55005b346102565760e09061211536612180565b90600052600760205260406000209060005260205260ff60406000208054906001810154836002830154166003830154916005600485015494015494875260208701521515604086015260608501526080840152818116151560a084015260081c16151560c0820152f35b6040906003190112610256576004359060243590565b60c080918051845260208101516020850152604081015115156040850152606081015160608501526080810151608085015260a0810151151560a085015201511515910152565b906020808351928381520192019060005b8181106121fb5750505090565b82518452602093840193909201916001016121ee565b9181601f84011215610256578235916001600160401b038311610256576020838186019501011161025657565b919082519283825260005b84811061226a575050826000602080949584010152601f8019910116010190565b80602080928401015182828601015201612249565b908151815260018060a01b0360208301511660208201526101a0806122f46122e26122d06122be60408801516101c060408901526101c088019061223e565b6060880151878203606089015261223e565b6080870151868203608088015261223e565b60a086015185820360a087015261223e565b9360c081015160c085015260e081015160e08501526101008101511515610100850152610120810151610120850152610140810151610140850152610160810151610160850152610180810151610180850152015191015290565b9060406003198301126102565760043591602435906001600160401b0382116102565761237e91600401612211565b9091565b90600182811c921680156123b2575b602083101461239c57565b634e487b7160e01b600052602260045260246000fd5b91607f1691612391565b60e081019081106001600160401b0382111761092957604052565b6101c081019081106001600160401b0382111761092957604052565b90601f801991011681019081106001600160401b0382111761092957604052565b906040519182600082549261242884612382565b8084529360018116908115612496575060011461244f575b5061244d925003836123f3565b565b90506000929192526020600020906000915b81831061247a57505090602061244d9282010138612440565b6020919350806001915483858901015201910190918492612461565b90506020925061244d94915060ff191682840152151560051b82010138612440565b156124bf57565b60405162461bcd60e51b815260206004820152600f60248201526e2737ba1036b7b232b61037bbb732b960891b6044820152606490fd5b156124fd57565b60405162461bcd60e51b8152602060048201526012602482015271496e73756666696369656e74207374616b6560701b6044820152606490fd5b60405190612544826123bc565b600060c0838281528260208201528260408201528260608201528260808201528260a08201520152565b1561257557565b60405162461bcd60e51b815260206004820152601260248201527112541194c81a185cda081c995c5d5a5c995960721b6044820152606490fd5b60001981146102865760010190565b9291926001600160401b03821161092957604051916125e7601f8201601f1916602001846123f3565b829481845281830111610256578281602093846000960137010152565b601f821161261157505050565b6000526020600020906020601f840160051c8301931061264c575b601f0160051c01905b818110612640575050565b60008155600101612635565b909150819061262c565b600c5481101561267157600c60005260206000200190600090565b634e487b7160e01b600052603260045260246000fd5b80548210156126715760005260206000200190600090565b90815491600160401b8310156109295782611b5591600161244d95018155612687565b908060209392818452848401376000828201840152601f01601f1916010190565b156126ea57565b60405162461bcd60e51b815260206004820152601060248201526f4d6f64656c206e6f742061637469766560801b6044820152606490fd5b1561272957565b60405162461bcd60e51b815260206004820152600e60248201526d139bdd08185d5d1a1bdc9a5e995960921b6044820152606490fd5b80518210156126715760209160051b010190565b9190820180921161028657565b8181029291811591840414171561028657565b811561279d570490565b634e487b7160e01b600052601260045260246000fd5b6001600160401b0381116109295760051b60200190565b906127d4826127b3565b6127e160405191826123f3565b82815280926127f2601f19916127b3565b0190602036910137565b60405190612809826123d7565b60006101a0838281528260208201526060604082015260608082015260606080820152606060a08201528260c08201528260e082015282610100820152826101208201528261014082015282610160820152826101808201520152565b908160005260086020526040600020916040518084602082965493848152019060005260206000209260005b81811061298f5750506128a7925003846123f3565b82511561298457600080809281935b86518510156129525781600052600760205260406000206128d7868961275f565b5160005260205260406000209283546000526005602052600c604060002001549060ff600286015416600014612934579161292682600361291d61292c95600197612773565b975b0154612780565b90612773565b9401936128b6565b93949161292682600361294c61292c95600197612773565b9861291f565b91949350506129618285612773565b801561297a5761297091612793565b935b519211929190565b5050600093612972565b506000915081908190565b8454835260019485019488945060209093019201612892565b156129af57565b60405162461bcd60e51b815260206004820152601760248201527f416d6f756e74206d75737420626520706f7369746976650000000000000000006044820152606490fd5b9190820391821161028657565b6000546001600160a01b03163303612a1557565b63118cdaa760e01b6000523360045260246000fd5b60ff60005460a01c16612a3957565b63d93c066560e01b60005260046000fd5b600260015414612a5b576002600155565b633ee5aeb560e01b60005260046000fd5b6040516323b872dd60e01b60208201526001600160a01b03928316602482015292909116604483015260648083019390935291815261244d91612ab06084836123f3565b612bf1565b6000526005602052604060002090600a549060011c603201908160321161028657606491612ae291612780565b0460068201549060648202918083046064149015171561028657612b1f606491612b11600c9460095490612793565b9060c88211612b4257612780565b0491015460011c603201908160321161028657606491612b3e91612780565b0490565b60c89150612780565b60405163a9059cbb60e01b60208201526001600160a01b03909216602483015260448083019390935291815261244d91612ab06064836123f3565b6009810154908115612bea57600b0154606490049060328110612bc15750600a8101809111610286575b60648111612bbb5790565b50606490565b601411612bb0576005810180911115612bb057634e487b7160e01b600052601160045260246000fd5b5050606490565b906000602091828151910182855af115612c4c576000513d612c4357506001600160a01b0381163b155b612c225750565b635274afe760e01b60009081526001600160a01b0391909116600452602490fd5b60011415612c1b565b6040513d6000823e3d90fdfea2646970667358221220183b02a6409dc4a9a0730a8f0a6d219b6d008d7c8ad0e46e9e5f57ef3d1cf7a164736f6c634300081c0033",
  "linkReferences": {},
  "deployedLinkReferences": {}
}