{
  "_format": "hh-sol-artifact-1",
  "contractName": "PredictionMarket",
  "sourceName": "contracts/PredictionMarketplace.sol",
  "abi": [
    {
      "inputs": [
        {
          "internalType": "address",
          "name": "_cUSD",
          "type": "address"
        }
      ],
      "stateMutability": "nonpayable",
      "type": "constructor"
    },
    {
      "inputs": [],
      "name": "EnforcedPause",
      "type": "error"
    },
    {
      "inputs": [],
      "name": "ExpectedPause",
      "type": "error"
    },
    {
      "inputs": [
        {
          "internalType": "address",
          "name": "owner",
          "type": "address"
        }
      ],
      "name": "OwnableInvalidOwner",
      "type": "error"
    },
    {
      "inputs": [
        {
          "internalType": "address",
          "name": "account",
          "type": "address"
        }
      ],
      "name": "OwnableUnauthorizedAccount",
      "type": "error"
    },
    {
      "inputs": [],
      "name": "ReentrancyGuardReentrantCall",
      "type": "error"
    },
    {
      "inputs": [
        {
          "internalType": "address",
          "name": "token",
          "type": "address"
        }
      ],
      "name": "SafeERC20FailedOperation",
      "type": "error"
    },
    {
      "anonymous": false,
      "inputs": [
        {
          "indexed": true,
          "internalType": "uint256",
          "name": "taskId",
          "type": "uint256"
        },
        {
          "indexed": false,
          "internalType": "uint256",
          "name": "resolutionDeadline",
          "type": "uint256"
        }
      ],
      "name": "MarketCreated",
      "type": "event"
    },
    {
      "anonymous": false,
      "inputs": [
        {
          "indexed": true,
          "internalType": "uint256",
          "name": "taskId",
          "type": "uint256"
        },
        {
          "indexed": false,
          "internalType": "bool",
          "name": "outcome",
          "type": "bool"
        }
      ],
      "name": "MarketResolved",
      "type": "event"
    },
    {
      "anonymous": false,
      "inputs": [
        {
          "indexed": true,
          "internalType": "address",
          "name": "previousOwner",
          "type": "address"
        },
        {
          "indexed": true,
          "internalType": "address",
          "name": "newOwner",
          "type": "address"
        }
      ],
      "name": "OwnershipTransferred",
      "type": "event"
    },
    {
      "anonymous": false,
      "inputs": [
        {
          "indexed": false,
          "internalType": "address",
          "name": "account",
          "type": "address"
        }
      ],
      "name": "Paused",
      "type": "event"
    },
    {
      "anonymous": false,
      "inputs": [
        {
          "indexed": true,
          "internalType": "uint256",
          "name": "taskId",
          "type": "uint256"
        },
        {
          "indexed": true,
          "internalType": "address",
          "name": "buyer",
          "type": "address"
        },
        {
          "indexed": false,
          "internalType": "bool",
          "name": "isYes",
          "type": "bool"
        },
        {
          "indexed": false,
          "internalType": "uint256",
          "name": "amount",
          "type": "uint256"
        },
        {
          "indexed": false,
          "internalType": "uint256",
          "name": "cost",
          "type": "uint256"
        }
      ],
      "name": "SharesPurchased",
      "type": "event"
    },
    {
      "anonymous": false,
      "inputs": [
        {
          "indexed": false,
          "internalType": "address",
          "name": "account",
          "type": "address"
        }
      ],
      "name": "Unpaused",
      "type": "event"
    },
    {
      "anonymous": false,
      "inputs": [
        {
          "indexed": true,
          "internalType": "uint256",
          "name": "taskId",
          "type": "uint256"
        },
        {
          "indexed": true,
          "internalType": "address",
          "name": "claimer",
          "type": "address"
        },
        {
          "indexed": false,
          "internalType": "uint256",
          "name": "amount",
          "type": "uint256"
        }
      ],
      "name": "WinningsClaimed",
      "type": "event"
    },
    {
      "inputs": [
        {
          "internalType": "uint256",
          "name": "taskId",
          "type": "uint256"
        },
        {
          "internalType": "bool",
          "name": "isYes",
          "type": "bool"
        },
        {
          "internalType": "uint256",
          "name": "amount",
          "type": "uint256"
        }
      ],
      "name": "buyShares",
      "outputs": [],
      "stateMutability": "nonpayable",
      "type": "function"
    },
    {
      "inputs": [],
      "name": "cUSD",
      "outputs": [
        {
          "internalType": "contract IERC20",
          "name": "",
          "type": "address"
        }
      ],
      "stateMutability": "view",
      "type": "function"
    },
    {
      "inputs": [
        {
          "internalType": "uint256",
          "name": "taskId",
          "type": "uint256"
        },
        {
          "internalType": "address",
          "name": "user",
          "type": "address"
        }
      ],
      "name": "calculateWinnings",
      "outputs": [
        {
          "internalType": "uint256",
          "name": "yesWinnings",
          "type": "uint256"
        },
        {
          "internalType": "uint256",
          "name": "noWinnings",
          "type": "uint256"
        }
      ],
      "stateMutability": "view",
      "type": "function"
    },
    {
      "inputs": [
        {
          "internalType": "uint256",
          "name": "taskId",
          "type": "uint256"
        }
      ],
      "name": "claimWinnings",
      "outputs": [],
      "stateMutability": "nonpayable",
      "type": "function"
    },
    {
      "inputs": [
        {
          "internalType": "uint256",
          "name": "taskId",
          "type": "uint256"
        },
        {
          "internalType": "uint256",
          "name": "resolutionDeadline",
          "type": "uint256"
        }
      ],
      "name": "createMarket",
      "outputs": [],
      "stateMutability": "nonpayable",
      "type": "function"
    },
    {
      "inputs": [
        {
          "internalType": "uint256",
          "name": "taskId",
          "type": "uint256"
        }
      ],
      "name": "getMarket",
      "outputs": [
        {
          "components": [
            {
              "internalType": "uint256",
              "name": "taskId",
              "type": "uint256"
            },
            {
              "internalType": "uint256",
              "name": "yesPool",
              "type": "uint256"
            },
            {
              "internalType": "uint256",
              "name": "noPool",
              "type": "uint256"
            },
            {
              "internalType": "uint256",
              "name": "totalVolume",
              "type": "uint256"
            },
            {
              "internalType": "uint256",
              "name": "resolutionDeadline",
              "type": "uint256"
            },
            {
              "internalType": "bool",
              "name": "isResolved",
              "type": "bool"
            },
            {
              "internalType": "bool",
              "name": "outcome",
              "type": "bool"
            },
            {
              "internalType": "uint256",
              "name": "createdAt",
              "type": "uint256"
            }
          ],
          "internalType": "struct PredictionMarket.Market",
          "name": "",
          "type": "tuple"
        }
      ],
      "stateMutability": "view",
      "type": "function"
    },
    {
      "inputs": [
        {
          "internalType": "uint256",
          "name": "taskId",
          "type": "uint256"
        }
      ],
      "name": "getOdds",
      "outputs": [
        {
          "internalType": "uint256",
          "name": "yesPercent",
          "type": "uint256"
        },
        {
          "internalType": "uint256",
          "name": "noPercent",
          "type": "uint256"
        }
      ],
      "stateMutability": "view",
      "type": "function"
    },
    {
      "inputs": [
        {
          "internalType": "uint256",
          "name": "taskId",
          "type": "uint256"
        },
        {
          "internalType": "address",
          "name": "user",
          "type": "address"
        }
      ],
      "name": "getPosition",
      "outputs": [
        {
          "internalType": "uint256",
          "name": "yesShares",
          "type": "uint256"
        },
        {
          "internalType": "uint256",
          "name": "noShares",
          "type": "uint256"
        }
      ],
      "stateMutability": "view",
      "type": "function"
    },
    {
      "inputs": [],
      "name": "marketCreationFee",
      "outputs": [
        {
          "internalType": "uint256",
          "name": "",
          "type": "uint256"
        }
      ],
      "stateMutability": "view",
      "type": "function"
    },
    {
      "inputs": [
        {
          "internalType": "uint256",
          "name": "taskId",
          "type": "uint256"
        }
      ],
      "name": "marketExists",
      "outputs": [
        {
          "internalType": "bool",
          "name": "",
          "type": "bool"
        }
      ],
      "stateMutability": "view",
      "type": "function"
    },
    {
      "inputs": [
        {
          "internalType": "uint256",
          "name": "",
          "type": "uint256"
        }
      ],
      "name": "markets",
      "outputs": [
        {
          "internalType": "uint256",
          "name": "taskId",
          "type": "uint256"
        },
        {
          "internalType": "uint256",
          "name": "yesPool",
          "type": "uint256"
        },
        {
          "internalType": "uint256",
          "name": "noPool",
          "type": "uint256"
        },
        {
          "internalType": "uint256",
          "name": "totalVolume",
          "type": "uint256"
        },
        {
          "internalType": "uint256",
          "name": "resolutionDeadline",
          "type": "uint256"
        },
        {
          "internalType": "bool",
          "name": "isResolved",
          "type": "bool"
        },
        {
          "internalType": "bool",
          "name": "outcome",
          "type": "bool"
        },
        {
          "internalType": "uint256",
          "name": "createdAt",
          "type": "uint256"
        }
      ],
      "stateMutability": "view",
      "type": "function"
    },
    {
      "inputs": [],
      "name": "owner",
      "outputs": [
        {
          "internalType": "address",
          "name": "",
          "type": "address"
        }
      ],
      "stateMutability": "view",
      "type": "function"
    },
    {
      "inputs": [],
      "name": "pause",
      "outputs": [],
      "stateMutability": "nonpayable",
      "type": "function"
    },
    {
      "inputs": [],
      "name": "paused",
      "outputs": [
        {
          "internalType": "bool",
          "name": "",
          "type": "bool"
        }
      ],
      "stateMutability": "view",
      "type": "function"
    },
    {
      "inputs": [
        {
          "internalType": "uint256",
          "name": "",
          "type": "uint256"
        },
        {
          "internalType": "address",
          "name": "",
          "type": "address"
        }
      ],
      "name": "positions",
      "outputs": [
        {
          "internalType": "uint256",
          "name": "yesShares",
          "type": "uint256"
        },
        {
          "internalType": "uint256",
          "name": "noShares",
          "type": "uint256"
        }
      ],
      "stateMutability": "view",
      "type": "function"
    },
    {
      "inputs": [],
      "name": "renounceOwnership",
      "outputs": [],
      "stateMutability": "nonpayable",
      "type": "function"
    },
    {
      "inputs": [
        {
          "internalType": "uint256",
          "name": "taskId",
          "type": "uint256"
        },
        {
          "internalType": "bool",
          "name": "outcome",
          "type": "bool"
        }
      ],
      "name": "resolveMarket",
      "outputs": [],
      "stateMutability": "nonpayable",
      "type": "function"
    },
    {
      "inputs": [
        {
          "internalType": "uint256",
          "name": "newFee",
          "type": "uint256"
        }
      ],
      "name": "setMarketCreationFee",
      "outputs": [],
      "stateMutability": "nonpayable",
      "type": "function"
    },
    {
      "inputs": [
        {
          "internalType": "address",
          "name": "_verificationManager",
          "type": "address"
        }
      ],
      "name": "setVerificationManager",
      "outputs": [],
      "stateMutability": "nonpayable",
      "type": "function"
    },
    {
      "inputs": [
        {
          "internalType": "address",
          "name": "newOwner",
          "type": "address"
        }
      ],
      "name": "transferOwnership",
      "outputs": [],
      "stateMutability": "nonpayable",
      "type": "function"
    },
    {
      "inputs": [],
      "name": "unpause",
      "outputs": [],
      "stateMutability": "nonpayable",
      "type": "function"
    },
    {
      "inputs": [],
      "name": "verificationManagerAddress",
      "outputs": [
        {
          "internalType": "address",
          "name": "",
          "type": "address"
        }
      ],
      "stateMutability": "view",
      "type": "function"
    }
  ],
  "bytecode": "0x60803461012057601f61120d38819003918201601f19168301916001600160401b038311848410176101255780849260209460405283398101031261012057516001600160a01b0381169081900361012057331561010a5760008054336001600160a01b03198216811783556040519290916001600160a01b0316907f8be0079c531659141344cd1fd0a4f28419497f9722a3daafe3b4186f6b6457e09080a3600180556702c68af0bb14000060065581156100d95750600280546001600160a01b0319169190911790556040516110d1908161013c8239f35b62461bcd60e51b815260206004820152600c60248201526b125b9d985b1a590818d554d160a21b6044820152606490fd5b631e4fbdf760e01b600052600060045260246000fd5b600080fd5b634e487b7160e01b600052604160045260246000fdfe6080604052600436101561001257600080fd5b60003560e01c8063126c416614610cb55780631fccf67214610c8c5780632e82b24414610c085780632ef1bdfa14610bea57806339b4637214610a065780633f4ba83a1461099557806357bde446146108695780635c975abb14610843578063677bd9ff146106bf578063715018a6146106665780638456cb59146106045780638da5cb5b146105db5780639f37022a146105ba578063a018eef514610591578063b1283e7714610511578063c7604fec14610354578063d29f541d14610303578063e684d71814610303578063eb44fdd3146101ff578063ec69a654146101ce578063f15cc4061461019c5763f2fde38b1461010e57600080fd5b3461019757602036600319011261019757610127610cd3565b61012f610f83565b6001600160a01b0316801561018157600080546001600160a01b03198116831782556001600160a01b0316907f8be0079c531659141344cd1fd0a4f28419497f9722a3daafe3b4186f6b6457e09080a3005b631e4fbdf760e01b600052600060045260246000fd5b600080fd5b346101975760403660031901126101975760406101c26101ba610ce9565b600435610eb6565b82519182526020820152f35b3461019757602036600319011261019757600435600052600460205260206006604060002001541515604051908152f35b3461019757602036600319011261019757600060e060405161022081610e61565b8281528260208201528260408201528260608201528260808201528260a08201528260c082015201526004356000526004602052610100604060002060405161026881610e61565b815491828252600181015490602083019182526002810154604084019081526003820154606085019081526004830154916080860192835260058401549460e0600660a089019660ff89161515885260ff60c08b019960081c16151589520154970196875260405197885251602088015251604087015251606086015251608085015251151560a084015251151560c08301525160e0820152f35b346101975760403660031901126101975761031c610ce9565b600435600052600560205260406000209060018060a01b03166000526020526040806000206001815491015482519182526020820152f35b3461019757604036600319011261019757600435602435610373610fac565b61037b610fcc565b8160005260046020526006604060002001546104d4574281111561049c5760207f5d047b96357082535b3a8bbdba2f7235ade27d87c2ba32c48101c8a340593891916006548061047c575b506040516103d381610e61565b84815260068382016000815261046b60408401600081526060850190600082526080860187815260a08701926000845260c08801926000845260e08901964288528d60005260048c52604060002099518a555160018a0155516002890155516003880155516004870155600586019151151560ff8019845416911617825551151561ff00825491151560081b169061ff001916179055565b51910155604051908152a260018055005b6002546104969190309033906001600160a01b0316610fee565b846103c6565b60405162461bcd60e51b815260206004820152601060248201526f496e76616c696420646561646c696e6560801b6044820152606490fd5b60405162461bcd60e51b81526020600482015260156024820152744d61726b657420616c72656164792065786973747360581b6044820152606490fd5b34610197576020366003190112610197576004356000526004602052610100604060002080549060ff6001820154916002810154600382015460048301549160066005850154940154956040519788526020880152604087015260608601526080850152818116151560a085015260081c16151560c083015260e0820152f35b34610197576000366003190112610197576003546040516001600160a01b039091168152602090f35b34610197576020366003190112610197576105d3610f83565b600435600655005b34610197576000366003190112610197576000546040516001600160a01b039091168152602090f35b346101975760003660031901126101975761061d610f83565b610625610fac565b6000805460ff60a01b1916600160a01b1790556040513381527f62e78cea01bee320cd4e420270b5ea74000d11b0c9f74754ebdbfc544b05a25890602090a1005b346101975760003660031901126101975761067f610f83565b600080546001600160a01b0319811682556001600160a01b03167f8be0079c531659141344cd1fd0a4f28419497f9722a3daafe3b4186f6b6457e08280a3005b34610197576020366003190112610197576004356106db610fcc565b80600052600460205260406000209060058201549160ff83161561080857600082815260056020908152604080832033845290915290209260081c60ff16156107d25761075260009161074d8554610734811515610e1e565b6107476002600185015494015484610d0e565b90610d31565b610d44565b92555b610760821515610e1e565b60025460405163a9059cbb60e01b6020820152336024820152604480820185905281526107a0916001600160a01b031661079b606483610e94565b611034565b6040519182527f5380cf6fe903b40c6d5a9e0dfbca2f3a423f0a21520b4d5947ed5169bdba946d60203393a360018055005b916108016001600092019361074d85546107ed811515610e1e565b610747600260018501549401548094610d0e565b9255610755565b60405162461bcd60e51b815260206004820152601360248201527213585c9ad95d081b9bdd081c995cdbdb1d9959606a1b6044820152606490fd5b3461019757600036600319011261019757602060ff60005460a01c166040519015158152f35b3461019757604036600319011261019757600435610885610cff565b6003546001600160a01b031633148015610981575b1561094b57816000526004602052600560406000206108be60068201541515610dda565b019081549060ff82166109135761ffff1990911681151560081b61ff0016176001179091557f4927fe38919783250023d27e65a3e56b6b5c3e49364e51674a41ef08d62460d9906020906040519015158152a2005b60405162461bcd60e51b815260206004820152601060248201526f105b1c9958591e481c995cdbdb1d995960821b6044820152606490fd5b60405162461bcd60e51b815260206004820152600e60248201526d139bdd08185d5d1a1bdc9a5e995960921b6044820152606490fd5b506000546001600160a01b0316331461089a565b34610197576000366003190112610197576109ae610f83565b60005460ff8160a01c16156109f55760ff60a01b19166000556040513381527f5db9ee0a495bf2e6ff9c91a7834c1ba4fdd244a5e8aa4e537bd38aeae4b073aa90602090a1005b638dfc202b60e01b60005260046000fd5b3461019757606036600319011261019757600435610a22610cff565b90604435610a2e610fac565b610a36610fcc565b8160005260046020526040600020610a5360068201541515610dda565b60ff600582015416610ba5578115610b605760025460039190610a84908490309033906001600160a01b0316610fee565b8415610b185760018101610a99848254610d0e565b9055836000526005602052604060002060018060a01b0333166000526020526040600020610ac8848254610d0e565b90555b01610ad7828254610d0e565b9055604051921515835280602084015260408301527f0631ac0888ff9f018415d62a5322af0d89414f3d2cbf8dad4bcf1dac49eb6a5460603393a360018055005b60028101610b27848254610d0e565b9055836000526005602052604060002060018060a01b0333166000526020526001604060002001610b59848254610d0e565b9055610acb565b60405162461bcd60e51b815260206004820152601760248201527f416d6f756e74206d75737420626520706f7369746976650000000000000000006044820152606490fd5b60405162461bcd60e51b815260206004820152601760248201527f4d61726b657420616c7265616479207265736f6c7665640000000000000000006044820152606490fd5b34610197576000366003190112610197576020600654604051908152f35b3461019757602036600319011261019757610c21610cd3565b610c29610f83565b6001600160a01b03168015610c55576bffffffffffffffffffffffff60a01b6003541617600355600080f35b60405162461bcd60e51b815260206004820152600f60248201526e496e76616c6964206164647265737360881b6044820152606490fd5b34610197576000366003190112610197576002546040516001600160a01b039091168152602090f35b346101975760203660031901126101975760406101c2600435610d64565b600435906001600160a01b038216820361019757565b602435906001600160a01b038216820361019757565b60243590811515820361019757565b91908201809211610d1b57565b634e487b7160e01b600052601160045260246000fd5b81810292918115918404141715610d1b57565b8115610d4e570490565b634e487b7160e01b600052601260045260246000fd5b600052600460205260406000209060026001830154920154610d868184610d0e565b928315610dce576127108102908082046127101490151715610d1b5783610dac91610d44565b926127108202918083046127101490151715610d1b57610dcb91610d44565b90565b50509050611388908190565b15610de157565b60405162461bcd60e51b815260206004820152601560248201527413585c9ad95d08191bd95cc81b9bdd08195e1a5cdd605a1b6044820152606490fd5b15610e2557565b60405162461bcd60e51b81526020600482015260146024820152734e6f2077696e6e696e677320746f20636c61696d60601b6044820152606490fd5b610100810190811067ffffffffffffffff821117610e7e57604052565b634e487b7160e01b600052604160045260246000fd5b90601f8019910116810190811067ffffffffffffffff821117610e7e57604052565b6000908152600460209081526040808320600583528184206001600160a01b0390951684529390915281206001830154600290930154919392849291610efc8383610d0e565b918215610f7457815480151580610f6b575b610f50575b50506001015480151580610f47575b610f2e575b5050509190565b610f3e9395509061074d91610d31565b91388080610f27565b50821515610f22565b60019295509061074d84610f6393610d31565b939038610f13565b50811515610f0e565b50505050509050600090600090565b6000546001600160a01b03163303610f9757565b63118cdaa760e01b6000523360045260246000fd5b60ff60005460a01c16610fbb57565b63d93c066560e01b60005260046000fd5b600260015414610fdd576002600155565b633ee5aeb560e01b60005260046000fd5b6040516323b872dd60e01b60208201526001600160a01b0392831660248201529290911660448301526064808301939093529181526110329161079b608483610e94565b565b906000602091828151910182855af11561108f576000513d61108657506001600160a01b0381163b155b6110655750565b635274afe760e01b60009081526001600160a01b0391909116600452602490fd5b6001141561105e565b6040513d6000823e3d90fdfea2646970667358221220e3508ce00b8d82f3293ea2bf83c9111f9df22dc7a174902ebc3398822a762c2c64736f6c634300081c0033",
  "linkReferences": {},
  "deployedLinkReferences": {}
}